{
  "contractName": "Controller",
  "abi": [
    {
      "constant": true,
      "inputs": [],
      "name": "name",
      "outputs": [
        {
          "name": "",
          "type": "string"
        }
      ],
      "payable": false,
      "stateMutability": "view",
      "type": "function"
    },
    {
      "constant": true,
      "inputs": [
        {
          "name": "",
          "type": "string"
        }
      ],
      "name": "usernameToToken",
      "outputs": [
        {
          "name": "",
          "type": "address"
        }
      ],
      "payable": false,
      "stateMutability": "view",
      "type": "function"
    },
    {
      "constant": true,
      "inputs": [],
      "name": "decimals",
      "outputs": [
        {
          "name": "",
          "type": "uint8"
        }
      ],
      "payable": false,
      "stateMutability": "view",
      "type": "function"
    },
    {
      "constant": true,
      "inputs": [
        {
          "name": "username",
          "type": "string"
        }
      ],
      "name": "getCreateMessageId",
      "outputs": [
        {
          "name": "",
          "type": "bytes32"
        }
      ],
      "payable": false,
      "stateMutability": "pure",
      "type": "function"
    },
    {
      "constant": true,
      "inputs": [],
      "name": "minDeposit",
      "outputs": [
        {
          "name": "",
          "type": "uint256"
        }
      ],
      "payable": false,
      "stateMutability": "view",
      "type": "function"
    },
    {
      "constant": true,
      "inputs": [
        {
          "name": "hash",
          "type": "bytes32"
        },
        {
          "name": "v",
          "type": "uint8"
        },
        {
          "name": "r",
          "type": "bytes32"
        },
        {
          "name": "s",
          "type": "bytes32"
        }
      ],
      "name": "recoverEthSignedMessage",
      "outputs": [
        {
          "name": "",
          "type": "address"
        }
      ],
      "payable": false,
      "stateMutability": "pure",
      "type": "function"
    },
    {
      "constant": true,
      "inputs": [
        {
          "name": "",
          "type": "uint256"
        }
      ],
      "name": "tokens",
      "outputs": [
        {
          "name": "",
          "type": "address"
        }
      ],
      "payable": false,
      "stateMutability": "view",
      "type": "function"
    },
    {
      "constant": true,
      "inputs": [
        {
          "name": "messageId",
          "type": "bytes32"
        }
      ],
      "name": "seenMessage",
      "outputs": [
        {
          "name": "",
          "type": "bool"
        }
      ],
      "payable": false,
      "stateMutability": "view",
      "type": "function"
    },
    {
      "constant": true,
      "inputs": [
        {
          "name": "signer",
          "type": "address"
        },
        {
          "name": "hash",
          "type": "bytes32"
        },
        {
          "name": "v",
          "type": "uint8"
        },
        {
          "name": "r",
          "type": "bytes32"
        },
        {
          "name": "s",
          "type": "bytes32"
        }
      ],
      "name": "isValidSignature",
      "outputs": [
        {
          "name": "",
          "type": "bool"
        }
      ],
      "payable": false,
      "stateMutability": "pure",
      "type": "function"
    },
    {
      "constant": true,
      "inputs": [],
      "name": "owner",
      "outputs": [
        {
          "name": "",
          "type": "address"
        }
      ],
      "payable": false,
      "stateMutability": "view",
      "type": "function"
    },
    {
      "constant": true,
      "inputs": [
        {
          "name": "token",
          "type": "address"
        },
        {
          "name": "account",
          "type": "address"
        },
        {
          "name": "amount",
          "type": "uint256"
        },
        {
          "name": "salt",
          "type": "uint256"
        }
      ],
      "name": "getMintMessageId",
      "outputs": [
        {
          "name": "",
          "type": "bytes32"
        }
      ],
      "payable": false,
      "stateMutability": "pure",
      "type": "function"
    },
    {
      "constant": true,
      "inputs": [],
      "name": "symbol",
      "outputs": [
        {
          "name": "",
          "type": "string"
        }
      ],
      "payable": false,
      "stateMutability": "view",
      "type": "function"
    },
    {
      "constant": false,
      "inputs": [
        {
          "name": "token",
          "type": "address"
        },
        {
          "name": "amount",
          "type": "uint256"
        },
        {
          "name": "salt",
          "type": "uint256"
        },
        {
          "name": "messageId",
          "type": "bytes32"
        },
        {
          "name": "v",
          "type": "uint8"
        },
        {
          "name": "r",
          "type": "bytes32"
        },
        {
          "name": "s",
          "type": "bytes32"
        }
      ],
      "name": "mint",
      "outputs": [
        {
          "name": "",
          "type": "bool"
        }
      ],
      "payable": false,
      "stateMutability": "nonpayable",
      "type": "function"
    },
    {
      "constant": true,
      "inputs": [
        {
          "name": "",
          "type": "bytes32"
        }
      ],
      "name": "messageIdToBlockNumber",
      "outputs": [
        {
          "name": "",
          "type": "uint256"
        }
      ],
      "payable": false,
      "stateMutability": "view",
      "type": "function"
    },
    {
      "constant": true,
      "inputs": [
        {
          "name": "",
          "type": "address"
        }
      ],
      "name": "tokenToUsername",
      "outputs": [
        {
          "name": "",
          "type": "string"
        }
      ],
      "payable": false,
      "stateMutability": "view",
      "type": "function"
    },
    {
      "constant": true,
      "inputs": [],
      "name": "tokensLength",
      "outputs": [
        {
          "name": "",
          "type": "uint256"
        }
      ],
      "payable": false,
      "stateMutability": "view",
      "type": "function"
    },
    {
      "constant": true,
      "inputs": [],
      "name": "DAI",
      "outputs": [
        {
          "name": "",
          "type": "address"
        }
      ],
      "payable": false,
      "stateMutability": "view",
      "type": "function"
    },
    {
      "constant": false,
      "inputs": [
        {
          "name": "username",
          "type": "string"
        },
        {
          "name": "messageId",
          "type": "bytes32"
        },
        {
          "name": "v",
          "type": "uint8"
        },
        {
          "name": "r",
          "type": "bytes32"
        },
        {
          "name": "s",
          "type": "bytes32"
        }
      ],
      "name": "create",
      "outputs": [
        {
          "name": "",
          "type": "address"
        }
      ],
      "payable": false,
      "stateMutability": "nonpayable",
      "type": "function"
    },
    {
      "inputs": [
        {
          "name": "daiAddress",
          "type": "address"
        }
      ],
      "payable": false,
      "stateMutability": "nonpayable",
      "type": "constructor"
    },
    {
      "anonymous": false,
      "inputs": [
        {
          "indexed": true,
          "name": "account",
          "type": "address"
        },
        {
          "indexed": false,
          "name": "amount",
          "type": "uint256"
        },
        {
          "indexed": false,
          "name": "balance",
          "type": "uint256"
        }
      ],
      "name": "Deposit",
      "type": "event"
    },
    {
      "anonymous": false,
      "inputs": [
        {
          "indexed": true,
          "name": "account",
          "type": "address"
        },
        {
          "indexed": false,
          "name": "amount",
          "type": "uint256"
        },
        {
          "indexed": false,
          "name": "balance",
          "type": "uint256"
        }
      ],
      "name": "Withdraw",
      "type": "event"
    },
    {
      "anonymous": false,
      "inputs": [
        {
          "indexed": true,
          "name": "owner",
          "type": "address"
        }
      ],
      "name": "Owner",
      "type": "event"
    },
    {
      "anonymous": false,
      "inputs": [
        {
          "indexed": true,
          "name": "daiAddress",
          "type": "address"
        }
      ],
      "name": "DAIAddress",
      "type": "event"
    },
    {
      "anonymous": false,
      "inputs": [
        {
          "indexed": false,
          "name": "token",
          "type": "address"
        },
        {
          "indexed": false,
          "name": "account",
          "type": "address"
        },
        {
          "indexed": false,
          "name": "amount",
          "type": "uint256"
        },
        {
          "indexed": false,
          "name": "messageId",
          "type": "bytes32"
        }
      ],
      "name": "Mint",
      "type": "event"
    },
    {
      "anonymous": false,
      "inputs": [
        {
          "indexed": false,
          "name": "messageId",
          "type": "bytes32"
        },
        {
          "indexed": false,
          "name": "username",
          "type": "string"
        },
        {
          "indexed": false,
          "name": "token",
          "type": "address"
        },
        {
          "indexed": false,
          "name": "creator",
          "type": "address"
        }
      ],
      "name": "Create",
      "type": "event"
    },
    {
      "constant": false,
      "inputs": [
        {
          "name": "_address",
          "type": "address"
        }
      ],
      "name": "setOwner",
      "outputs": [
        {
          "name": "",
          "type": "bool"
        }
      ],
      "payable": false,
      "stateMutability": "nonpayable",
      "type": "function"
    },
    {
      "constant": false,
      "inputs": [
        {
          "name": "daiAddress",
          "type": "address"
        }
      ],
      "name": "setDaiAddress",
      "outputs": [
        {
          "name": "",
          "type": "bool"
        }
      ],
      "payable": false,
      "stateMutability": "nonpayable",
      "type": "function"
    },
    {
      "constant": false,
      "inputs": [
        {
          "name": "_amount",
          "type": "uint256"
        }
      ],
      "name": "deposit",
      "outputs": [
        {
          "name": "",
          "type": "bool"
        }
      ],
      "payable": false,
      "stateMutability": "nonpayable",
      "type": "function"
    },
    {
      "constant": false,
      "inputs": [
        {
          "name": "amount",
          "type": "uint256"
        }
      ],
      "name": "withdraw",
      "outputs": [
        {
          "name": "",
          "type": "bool"
        }
      ],
      "payable": false,
      "stateMutability": "nonpayable",
      "type": "function"
    },
    {
      "constant": true,
      "inputs": [
        {
          "name": "account",
          "type": "address"
        }
      ],
      "name": "balanceOf",
      "outputs": [
        {
          "name": "",
          "type": "uint256"
        }
      ],
      "payable": false,
      "stateMutability": "view",
      "type": "function"
    },
    {
      "constant": true,
      "inputs": [],
      "name": "totalSupply",
      "outputs": [
        {
          "name": "",
          "type": "uint256"
        }
      ],
      "payable": false,
      "stateMutability": "view",
      "type": "function"
    }
  ],
  "bytecode": "0x60806040526001600560006101000a81548173ffffffffffffffffffffffffffffffffffffffff021916908373ffffffffffffffffffffffffffffffffffffffff160217905550662386f26fc100006006556040518060400160405280600f81526020017f32313030204c6f636b6564204441490000000000000000000000000000000000815250600790805190602001906200009e9291906200042b565b506040518060400160405280600781526020017f323130304441490000000000000000000000000000000000000000000000000081525060089080519060200190620000ec9291906200042b565b506012600960006101000a81548160ff021916908360ff1602179055503480156200011657600080fd5b506040516200553a3803806200553a833981810160405260208110156200013c57600080fd5b81019080805190602001909291905050506200015e336200017860201b60201c565b506200017081620002b560201b60201c565b5050620004da565b60008073ffffffffffffffffffffffffffffffffffffffff166000809054906101000a900473ffffffffffffffffffffffffffffffffffffffff1673ffffffffffffffffffffffffffffffffffffffff1614806200022257503373ffffffffffffffffffffffffffffffffffffffff166000809054906101000a900473ffffffffffffffffffffffffffffffffffffffff1673ffffffffffffffffffffffffffffffffffffffff16145b6200022957fe5b816000806101000a81548173ffffffffffffffffffffffffffffffffffffffff021916908373ffffffffffffffffffffffffffffffffffffffff1602179055508173ffffffffffffffffffffffffffffffffffffffff167fa5e220c2c27d986cc8efeafa8f34ba6ea6bf96a34e146b29b6bdd8587771b13060405160405180910390a260019050919050565b60008073ffffffffffffffffffffffffffffffffffffffff166000809054906101000a900473ffffffffffffffffffffffffffffffffffffffff1673ffffffffffffffffffffffffffffffffffffffff1614806200035f57503373ffffffffffffffffffffffffffffffffffffffff166000809054906101000a900473ffffffffffffffffffffffffffffffffffffffff1673ffffffffffffffffffffffffffffffffffffffff16145b6200036657fe5b600073ffffffffffffffffffffffffffffffffffffffff168273ffffffffffffffffffffffffffffffffffffffff1614156200039e57fe5b81600b60006101000a81548173ffffffffffffffffffffffffffffffffffffffff021916908373ffffffffffffffffffffffffffffffffffffffff1602179055508173ffffffffffffffffffffffffffffffffffffffff167f6768ecc4502721534959d1b99640aad4829d2ac886647e4c55ea5eb6b6a181af60405160405180910390a260019050919050565b828054600181600116156101000203166002900490600052602060002090601f016020900481019282601f106200046e57805160ff19168380011785556200049f565b828001600101855582156200049f579182015b828111156200049e57825182559160200191906001019062000481565b5b509050620004ae9190620004b2565b5090565b620004d791905b80821115620004d3576000816000905550600101620004b9565b5090565b90565b61505080620004ea6000396000f3fe60806040523480156200001157600080fd5b5060043610620001785760003560e01c80638163681e11620000d5578063b6b55f251162000087578063b6b55f25146200097a578063ba29ba4014620009c3578063ce4868d51462000a08578063d92fc67b1462000acb578063e0bab4c41462000aeb578063e5aba6b51462000b375762000178565b80638163681e14620006905780638da5cb5b146200071a5780638e272c71146200076657806395d89b4114620007f5578063a6693590146200087d578063a733dbe714620008dc5762000178565b80633f64f994116200012f5780633f64f99414620003f457806341b3d18514620004c957806348a5325014620004e95780634f64b2be146200057b57806358da3a8d14620005ec57806370a0823114620006355762000178565b806306fdde03146200017d57806312b6a3fe146200020557806313af4035146200030657806318160ddd14620003655780632e1a7d4d1462000385578063313ce56714620003ce575b600080fd5b6200018762000c63565b6040518080602001828103825283818151815260200191508051906020019080838360005b83811015620001c9578082015181840152602081019050620001ac565b50505050905090810190601f168015620001f75780820380516001836020036101000a031916815260200191505b509250505060405180910390f35b620002c4600480360360208110156200021d57600080fd5b81019080803590602001906401000000008111156200023b57600080fd5b8201836020820111156200024e57600080fd5b803590602001918460018302840111640100000000831117156200027157600080fd5b91908080601f016020809104026020016040519081016040528093929190818152602001838380828437600081840152601f19601f82011690508083019250505050505050919291929050505062000d05565b604051808273ffffffffffffffffffffffffffffffffffffffff1673ffffffffffffffffffffffffffffffffffffffff16815260200191505060405180910390f35b6200034b600480360360208110156200031e57600080fd5b81019080803573ffffffffffffffffffffffffffffffffffffffff16906020019092919050505062000d4e565b604051808215151515815260200191505060405180910390f35b6200036f62000e8b565b6040518082815260200191505060405180910390f35b620003b4600480360360208110156200039d57600080fd5b810190808035906020019092919050505062000f6f565b604051808215151515815260200191505060405180910390f35b620003d86200145d565b604051808260ff1660ff16815260200191505060405180910390f35b620004b3600480360360208110156200040c57600080fd5b81019080803590602001906401000000008111156200042a57600080fd5b8201836020820111156200043d57600080fd5b803590602001918460018302840111640100000000831117156200046057600080fd5b91908080601f016020809104026020016040519081016040528093929190818152602001838380828437600081840152601f19601f82011690508083019250505050505050919291929050505062001470565b6040518082815260200191505060405180910390f35b620004d362001515565b6040518082815260200191505060405180910390f35b62000539600480360360808110156200050157600080fd5b8101908080359060200190929190803560ff16906020019092919080359060200190929190803590602001909291905050506200151b565b604051808273ffffffffffffffffffffffffffffffffffffffff1673ffffffffffffffffffffffffffffffffffffffff16815260200191505060405180910390f35b620005aa600480360360208110156200059357600080fd5b8101908080359060200190929190505050620015dd565b604051808273ffffffffffffffffffffffffffffffffffffffff1673ffffffffffffffffffffffffffffffffffffffff16815260200191505060405180910390f35b6200061b600480360360208110156200060457600080fd5b81019080803590602001909291905050506200161a565b604051808215151515815260200191505060405180910390f35b6200067a600480360360208110156200064d57600080fd5b81019080803573ffffffffffffffffffffffffffffffffffffffff16906020019092919050505062001639565b6040518082815260200191505060405180910390f35b62000700600480360360a0811015620006a857600080fd5b81019080803573ffffffffffffffffffffffffffffffffffffffff16906020019092919080359060200190929190803560ff169060200190929190803590602001909291908035906020019092919050505062001682565b604051808215151515815260200191505060405180910390f35b62000724620016cb565b604051808273ffffffffffffffffffffffffffffffffffffffff1673ffffffffffffffffffffffffffffffffffffffff16815260200191505060405180910390f35b620007df600480360360808110156200077e57600080fd5b81019080803573ffffffffffffffffffffffffffffffffffffffff169060200190929190803573ffffffffffffffffffffffffffffffffffffffff1690602001909291908035906020019092919080359060200190929190505050620016f0565b6040518082815260200191505060405180910390f35b620007ff620017c1565b6040518080602001828103825283818151815260200191508051906020019080838360005b838110156200084157808201518184015260208101905062000824565b50505050905090810190601f1680156200086f5780820380516001836020036101000a031916815260200191505b509250505060405180910390f35b620008c2600480360360208110156200089557600080fd5b81019080803573ffffffffffffffffffffffffffffffffffffffff16906020019092919050505062001863565b604051808215151515815260200191505060405180910390f35b62000960600480360360e0811015620008f457600080fd5b81019080803573ffffffffffffffffffffffffffffffffffffffff169060200190929190803590602001909291908035906020019092919080359060200190929190803560ff1690602001909291908035906020019092919080359060200190929190505050620019d9565b604051808215151515815260200191505060405180910390f35b620009a9600480360360208110156200099257600080fd5b810190808035906020019092919050505062001d6f565b604051808215151515815260200191505060405180910390f35b620009f260048036036020811015620009db57600080fd5b810190808035906020019092919050505062002520565b6040518082815260200191505060405180910390f35b62000a4d6004803603602081101562000a2057600080fd5b81019080803573ffffffffffffffffffffffffffffffffffffffff16906020019092919050505062002538565b6040518080602001828103825283818151815260200191508051906020019080838360005b8381101562000a8f57808201518184015260208101905062000a72565b50505050905090810190601f16801562000abd5780820380516001836020036101000a031916815260200191505b509250505060405180910390f35b62000ad5620025ec565b6040518082815260200191505060405180910390f35b62000af5620025f9565b604051808273ffffffffffffffffffffffffffffffffffffffff1673ffffffffffffffffffffffffffffffffffffffff16815260200191505060405180910390f35b62000c21600480360360a081101562000b4f57600080fd5b810190808035906020019064010000000081111562000b6d57600080fd5b82018360208201111562000b8057600080fd5b8035906020019184600183028401116401000000008311171562000ba357600080fd5b91908080601f016020809104026020016040519081016040528093929190818152602001838380828437600081840152601f19601f82011690508083019250505050505050919291929080359060200190929190803560ff16906020019092919080359060200190929190803590602001909291905050506200261f565b604051808273ffffffffffffffffffffffffffffffffffffffff1673ffffffffffffffffffffffffffffffffffffffff16815260200191505060405180910390f35b60078054600181600116156101000203166002900480601f01602080910402602001604051908101604052809291908181526020018280546001816001161561010002031660029004801562000cfd5780601f1062000cd15761010080835404028352916020019162000cfd565b820191906000526020600020905b81548152906001019060200180831162000cdf57829003601f168201915b505050505081565b6002818051602081018201805184825260208301602085012081835280955050505050506000915054906101000a900473ffffffffffffffffffffffffffffffffffffffff1681565b60008073ffffffffffffffffffffffffffffffffffffffff166000809054906101000a900473ffffffffffffffffffffffffffffffffffffffff1673ffffffffffffffffffffffffffffffffffffffff16148062000df857503373ffffffffffffffffffffffffffffffffffffffff166000809054906101000a900473ffffffffffffffffffffffffffffffffffffffff1673ffffffffffffffffffffffffffffffffffffffff16145b62000dff57fe5b816000806101000a81548173ffffffffffffffffffffffffffffffffffffffff021916908373ffffffffffffffffffffffffffffffffffffffff1602179055508173ffffffffffffffffffffffffffffffffffffffff167fa5e220c2c27d986cc8efeafa8f34ba6ea6bf96a34e146b29b6bdd8587771b13060405160405180910390a260019050919050565b6000600b60009054906101000a900473ffffffffffffffffffffffffffffffffffffffff1673ffffffffffffffffffffffffffffffffffffffff166370a08231306040518263ffffffff1660e01b8152600401808273ffffffffffffffffffffffffffffffffffffffff1673ffffffffffffffffffffffffffffffffffffffff16815260200191505060206040518083038186803b15801562000f2d57600080fd5b505afa15801562000f42573d6000803e3d6000fd5b505050506040513d602081101562000f5957600080fd5b8101908080519060200190929190505050905090565b60003373ffffffffffffffffffffffffffffffffffffffff166000809054906101000a900473ffffffffffffffffffffffffffffffffffffffff1673ffffffffffffffffffffffffffffffffffffffff16141562001019576040517f08c379a000000000000000000000000000000000000000000000000000000000815260040180806020018281038252602581526020018062004e6f6025913960400191505060405180910390fd5b81600a60003373ffffffffffffffffffffffffffffffffffffffff1673ffffffffffffffffffffffffffffffffffffffff168152602001908152602001600020541015620010b3576040517f08c379a000000000000000000000000000000000000000000000000000000000815260040180806020018281038252602e81526020018062004e94602e913960400191505060405180910390fd5b81600b60009054906101000a900473ffffffffffffffffffffffffffffffffffffffff1673ffffffffffffffffffffffffffffffffffffffff166370a08231306040518263ffffffff1660e01b8152600401808273ffffffffffffffffffffffffffffffffffffffff1673ffffffffffffffffffffffffffffffffffffffff16815260200191505060206040518083038186803b1580156200115457600080fd5b505afa15801562001169573d6000803e3d6000fd5b505050506040513d60208110156200118057600080fd5b81019080805190602001909291905050501015620011ea576040517f08c379a000000000000000000000000000000000000000000000000000000000815260040180806020018281038252603281526020018062004fea6032913960400191505060405180910390fd5b600b60009054906101000a900473ffffffffffffffffffffffffffffffffffffffff1673ffffffffffffffffffffffffffffffffffffffff1663a9059cbb33846040518363ffffffff1660e01b8152600401808373ffffffffffffffffffffffffffffffffffffffff1673ffffffffffffffffffffffffffffffffffffffff16815260200182815260200192505050602060405180830381600087803b1580156200129457600080fd5b505af1158015620012a9573d6000803e3d6000fd5b505050506040513d6020811015620012c057600080fd5b810190808051906020019092919050505062001328576040517f08c379a000000000000000000000000000000000000000000000000000000000815260040180806020018281038252602f81526020018062004f31602f913960400191505060405180910390fd5b6200137c82600a60003373ffffffffffffffffffffffffffffffffffffffff1673ffffffffffffffffffffffffffffffffffffffff1681526020019081526020016000205462002b5990919063ffffffff16565b600a60003373ffffffffffffffffffffffffffffffffffffffff1673ffffffffffffffffffffffffffffffffffffffff168152602001908152602001600020819055503373ffffffffffffffffffffffffffffffffffffffff167ff279e6a1f5e320cca91135676d9cb6e44ca8a08c0b88342bcdb1144f6511b56883600a60003373ffffffffffffffffffffffffffffffffffffffff1673ffffffffffffffffffffffffffffffffffffffff16815260200190815260200160002054604051808381526020018281526020019250505060405180910390a260019050919050565b600960009054906101000a900460ff1681565b60008160405160200180807f435245415445000000000000000000000000000000000000000000000000000081525060060182805190602001908083835b60208310620014d35780518252602082019150602081019050602083039250620014ae565b6001836020036101000a038019825116818451168082178552505050505050905001915050604051602081830303815290604052805190602001209050919050565b60065481565b600060018560405160200180807f19457468657265756d205369676e6564204d6573736167653a0a333200000000815250601c018281526020019150506040516020818303038152906040528051906020012085858560405160008152602001604052604051808581526020018460ff1660ff1681526020018381526020018281526020019450505050506020604051602081039080840390855afa158015620015c9573d6000803e3d6000fd5b505050602060405103519050949350505050565b60048181548110620015eb57fe5b906000526020600020016000915054906101000a900473ffffffffffffffffffffffffffffffffffffffff1681565b6000806001600084815260200190815260200160002054119050919050565b6000600a60008373ffffffffffffffffffffffffffffffffffffffff1673ffffffffffffffffffffffffffffffffffffffff168152602001908152602001600020549050919050565b600062001692858585856200151b565b73ffffffffffffffffffffffffffffffffffffffff168673ffffffffffffffffffffffffffffffffffffffff1614905095945050505050565b6000809054906101000a900473ffffffffffffffffffffffffffffffffffffffff1681565b60008484848460405160200180807f4d494e54000000000000000000000000000000000000000000000000000000008152506004018573ffffffffffffffffffffffffffffffffffffffff1673ffffffffffffffffffffffffffffffffffffffff1660601b81526014018473ffffffffffffffffffffffffffffffffffffffff1673ffffffffffffffffffffffffffffffffffffffff1660601b8152601401838152602001828152602001945050505050604051602081830303815290604052805190602001209050949350505050565b60088054600181600116156101000203166002900480601f0160208091040260200160405190810160405280929190818152602001828054600181600116156101000203166002900480156200185b5780601f106200182f576101008083540402835291602001916200185b565b820191906000526020600020905b8154815290600101906020018083116200183d57829003601f168201915b505050505081565b60008073ffffffffffffffffffffffffffffffffffffffff166000809054906101000a900473ffffffffffffffffffffffffffffffffffffffff1673ffffffffffffffffffffffffffffffffffffffff1614806200190d57503373ffffffffffffffffffffffffffffffffffffffff166000809054906101000a900473ffffffffffffffffffffffffffffffffffffffff1673ffffffffffffffffffffffffffffffffffffffff16145b6200191457fe5b600073ffffffffffffffffffffffffffffffffffffffff168273ffffffffffffffffffffffffffffffffffffffff1614156200194c57fe5b81600b60006101000a81548173ffffffffffffffffffffffffffffffffffffffff021916908373ffffffffffffffffffffffffffffffffffffffff1602179055508173ffffffffffffffffffffffffffffffffffffffff167f6768ecc4502721534959d1b99640aad4829d2ac886647e4c55ea5eb6b6a181af60405160405180910390a260019050919050565b60008460001515620019eb826200161a565b15151462001a45576040517f08c379a000000000000000000000000000000000000000000000000000000000815260040180806020018281038252602a81526020018062004fc0602a913960400191505060405180910390fd5b6000809054906101000a900473ffffffffffffffffffffffffffffffffffffffff168686868662001a7a858585858562001682565b62001aed576040517f08c379a00000000000000000000000000000000000000000000000000000000081526004018080602001828103825260178152602001807f323130303a20696e76616c6964207369676e617475726500000000000000000081525060200191505060405180910390fd5b62001afb8e338f8f620016f0565b8b1462001b70576040517f08c379a000000000000000000000000000000000000000000000000000000000815260040180806020018281038252601a8152602001807f323130303a206d657373616765496420697320696e76616c696400000000000081525060200191505060405180910390fd5b8d73ffffffffffffffffffffffffffffffffffffffff166340c10f19338f6040518363ffffffff1660e01b8152600401808373ffffffffffffffffffffffffffffffffffffffff1673ffffffffffffffffffffffffffffffffffffffff16815260200182815260200192505050602060405180830381600087803b15801562001bf857600080fd5b505af115801562001c0d573d6000803e3d6000fd5b505050506040513d602081101562001c2457600080fd5b810190808051906020019092919050505062001ca8576040517f08c379a000000000000000000000000000000000000000000000000000000000815260040180806020018281038252601a8152602001807f323130303a204d696e74696e6720746f6b656e206661696c656400000000000081525060200191505060405180910390fd5b7f692b6d6e8b9cda6d9a5aabac3677faeb10ae6f6a0090e5e7adf420efe94993b58e338f8e604051808573ffffffffffffffffffffffffffffffffffffffff1673ffffffffffffffffffffffffffffffffffffffff1681526020018473ffffffffffffffffffffffffffffffffffffffff1673ffffffffffffffffffffffffffffffffffffffff16815260200183815260200182815260200194505050505060405180910390a160019650505050505062001d638162002be3565b50979650505050505050565b60003373ffffffffffffffffffffffffffffffffffffffff166000809054906101000a900473ffffffffffffffffffffffffffffffffffffffff1673ffffffffffffffffffffffffffffffffffffffff16141562001e19576040517f08c379a000000000000000000000000000000000000000000000000000000000815260040180806020018281038252602581526020018062004e6f6025913960400191505060405180910390fd5b600062001e268362002bfe565b90506000811162001e83576040517f08c379a000000000000000000000000000000000000000000000000000000000815260040180806020018281038252603d81526020018062004f60603d913960400191505060405180910390fd5b80600b60009054906101000a900473ffffffffffffffffffffffffffffffffffffffff1673ffffffffffffffffffffffffffffffffffffffff1663dd62ed3e33306040518363ffffffff1660e01b8152600401808373ffffffffffffffffffffffffffffffffffffffff1673ffffffffffffffffffffffffffffffffffffffff1681526020018273ffffffffffffffffffffffffffffffffffffffff1673ffffffffffffffffffffffffffffffffffffffff1681526020019250505060206040518083038186803b15801562001f5857600080fd5b505afa15801562001f6d573d6000803e3d6000fd5b505050506040513d602081101562001f8457600080fd5b8101908080519060200190929190505050101562001fee576040517f08c379a000000000000000000000000000000000000000000000000000000000815260040180806020018281038252603781526020018062004ec26037913960400191505060405180910390fd5b80600b60009054906101000a900473ffffffffffffffffffffffffffffffffffffffff1673ffffffffffffffffffffffffffffffffffffffff166370a08231336040518263ffffffff1660e01b8152600401808273ffffffffffffffffffffffffffffffffffffffff1673ffffffffffffffffffffffffffffffffffffffff16815260200191505060206040518083038186803b1580156200208f57600080fd5b505afa158015620020a4573d6000803e3d6000fd5b505050506040513d6020811015620020bb57600080fd5b8101908080519060200190929190505050101562002125576040517f08c379a000000000000000000000000000000000000000000000000000000000815260040180806020018281038252603881526020018062004ef96038913960400191505060405180910390fd5b6000600b60009054906101000a900473ffffffffffffffffffffffffffffffffffffffff1673ffffffffffffffffffffffffffffffffffffffff166370a08231336040518263ffffffff1660e01b8152600401808273ffffffffffffffffffffffffffffffffffffffff1673ffffffffffffffffffffffffffffffffffffffff16815260200191505060206040518083038186803b158015620021c757600080fd5b505afa158015620021dc573d6000803e3d6000fd5b505050506040513d6020811015620021f357600080fd5b8101908080519060200190929190505050116200225c576040517f08c379a000000000000000000000000000000000000000000000000000000000815260040180806020018281038252602381526020018062004f9d6023913960400191505060405180910390fd5b600b60009054906101000a900473ffffffffffffffffffffffffffffffffffffffff1673ffffffffffffffffffffffffffffffffffffffff166323b872dd3330846040518463ffffffff1660e01b8152600401808473ffffffffffffffffffffffffffffffffffffffff1673ffffffffffffffffffffffffffffffffffffffff1681526020018373ffffffffffffffffffffffffffffffffffffffff1673ffffffffffffffffffffffffffffffffffffffff1681526020018281526020019350505050602060405180830381600087803b1580156200233a57600080fd5b505af11580156200234f573d6000803e3d6000fd5b505050506040513d60208110156200236657600080fd5b8101908080519060200190929190505050620023ea576040517f08c379a00000000000000000000000000000000000000000000000000000000081526004018080602001828103825260198152602001807f323130303a20444149207472616e73666572206661696c65640000000000000081525060200191505060405180910390fd5b6200243e81600a60003373ffffffffffffffffffffffffffffffffffffffff1673ffffffffffffffffffffffffffffffffffffffff1681526020019081526020016000205462002c3290919063ffffffff16565b600a60003373ffffffffffffffffffffffffffffffffffffffff1673ffffffffffffffffffffffffffffffffffffffff168152602001908152602001600020819055503373ffffffffffffffffffffffffffffffffffffffff167f90890809c654f11d6e72a28fa60149770a0d11ec6c92319d6ceb2bb0a4ea1a1582600a60003373ffffffffffffffffffffffffffffffffffffffff1673ffffffffffffffffffffffffffffffffffffffff16815260200190815260200160002054604051808381526020018281526020019250505060405180910390a26001915050919050565b60016020528060005260406000206000915090505481565b60036020528060005260406000206000915090508054600181600116156101000203166002900480601f016020809104026020016040519081016040528092919081815260200182805460018160011615610100020316600290048015620025e45780601f10620025b857610100808354040283529160200191620025e4565b820191906000526020600020905b815481529060010190602001808311620025c657829003601f168201915b505050505081565b6000600480549050905090565b600b60009054906101000a900473ffffffffffffffffffffffffffffffffffffffff1681565b6000846000151562002631826200161a565b1515146200268b576040517f08c379a000000000000000000000000000000000000000000000000000000000815260040180806020018281038252602a81526020018062004fc0602a913960400191505060405180910390fd5b6000809054906101000a900473ffffffffffffffffffffffffffffffffffffffff1686868686620026c0858585858562001682565b62002733576040517f08c379a00000000000000000000000000000000000000000000000000000000081526004018080602001828103825260178152602001807f323130303a20696e76616c6964207369676e617475726500000000000000000081525060200191505060405180910390fd5b6200273e8c62001470565b8b14620027b3576040517f08c379a000000000000000000000000000000000000000000000000000000000815260040180806020018281038252601a8152602001807f323130303a206d657373616765496420697320696e76616c696400000000000081525060200191505060405180910390fd5b60008c8d604051620027c59062002d47565b808060200180602001838103835285818151815260200191508051906020019080838360005b8381101562002808578082015181840152602081019050620027eb565b50505050905090810190601f168015620028365780820380516001836020036101000a031916815260200191505b50838103825284818151815260200191508051906020019080838360005b838110156200287157808201518184015260208101905062002854565b50505050905090810190601f1680156200289f5780820380516001836020036101000a031916815260200191505b50945050505050604051809103906000f080158015620028c3573d6000803e3d6000fd5b5090508060028e6040518082805190602001908083835b60208310620028ff5780518252602082019150602081019050602083039250620028da565b6001836020036101000a038019825116818451168082178552505050505050905001915050908152602001604051809103902060006101000a81548173ffffffffffffffffffffffffffffffffffffffff021916908373ffffffffffffffffffffffffffffffffffffffff1602179055508c600360008373ffffffffffffffffffffffffffffffffffffffff1673ffffffffffffffffffffffffffffffffffffffff1681526020019081526020016000209080519060200190620029c592919062002d55565b5060048190806001815401808255809150509060018203906000526020600020016000909192909190916101000a81548173ffffffffffffffffffffffffffffffffffffffff021916908373ffffffffffffffffffffffffffffffffffffffff160217905550507f4ca1969038e9a347e6f63f6d155cecc030ca7b1dcba468cfdcfcf349cc9d33a48c8e833360405180858152602001806020018473ffffffffffffffffffffffffffffffffffffffff1673ffffffffffffffffffffffffffffffffffffffff1681526020018373ffffffffffffffffffffffffffffffffffffffff1673ffffffffffffffffffffffffffffffffffffffff168152602001828103825285818151815260200191508051906020019080838360005b8381101562002afd57808201518184015260208101905062002ae0565b50505050905090810190601f16801562002b2b5780820380516001836020036101000a031916815260200191505b509550505050505060405180910390a180975050505050505062002b4f8162002be3565b5095945050505050565b60008282111562002bd2576040517f08c379a000000000000000000000000000000000000000000000000000000000815260040180806020018281038252601e8152602001807f536166654d6174683a207375627472616374696f6e206f766572666c6f77000081525060200191505060405180910390fd5b600082840390508091505092915050565b43600160008381526020019081526020016000208190555050565b600062002c2b62002c1b6006548462002cbb90919063ffffffff16565b8362002b5990919063ffffffff16565b9050919050565b60008082840190508381101562002cb1576040517f08c379a000000000000000000000000000000000000000000000000000000000815260040180806020018281038252601b8152602001807f536166654d6174683a206164646974696f6e206f766572666c6f77000000000081525060200191505060405180910390fd5b8091505092915050565b60008082141562002d34576040517f08c379a00000000000000000000000000000000000000000000000000000000081526004018080602001828103825260188152602001807f536166654d6174683a206d6f64756c6f206279207a65726f000000000000000081525060200191505060405180910390fd5b81838162002d3e57fe5b06905092915050565b61206a8062002e0583390190565b828054600181600116156101000203166002900490600052602060002090601f016020900481019282601f1062002d9857805160ff191683800117855562002dc9565b8280016001018555821562002dc9579182015b8281111562002dc857825182559160200191906001019062002dab565b5b50905062002dd8919062002ddc565b5090565b62002e0191905b8082111562002dfd57600081600090555060010162002de3565b5090565b9056fe60806040526012600760006101000a81548160ff021916908360ff1602179055506871d75ab9b9205000006008553480156200003a57600080fd5b506040516200206a3803806200206a833981810160405260408110156200006057600080fd5b8101908080516401000000008111156200007957600080fd5b828101905060208101848111156200009057600080fd5b8151856001820283011164010000000082111715620000ae57600080fd5b50509291906020018051640100000000811115620000cb57600080fd5b82810190506020810184811115620000e257600080fd5b81518560018202830111640100000000821117156200010057600080fd5b5050929190505050600073ffffffffffffffffffffffffffffffffffffffff16600460009054906101000a900473ffffffffffffffffffffffffffffffffffffffff1673ffffffffffffffffffffffffffffffffffffffff16146200016157fe5b62000172336200019f60201b60201c565b5062000184826200029c60201b60201c565b5062000196816200037160201b60201c565b505050620004f5565b60008073ffffffffffffffffffffffffffffffffffffffff16600460009054906101000a900473ffffffffffffffffffffffffffffffffffffffff1673ffffffffffffffffffffffffffffffffffffffff1614806200024b57503373ffffffffffffffffffffffffffffffffffffffff16600460009054906101000a900473ffffffffffffffffffffffffffffffffffffffff1673ffffffffffffffffffffffffffffffffffffffff16145b6200025257fe5b81600460006101000a81548173ffffffffffffffffffffffffffffffffffffffff021916908373ffffffffffffffffffffffffffffffffffffffff16021790555060019050919050565b60008073ffffffffffffffffffffffffffffffffffffffff16600460009054906101000a900473ffffffffffffffffffffffffffffffffffffffff1673ffffffffffffffffffffffffffffffffffffffff1614806200034857503373ffffffffffffffffffffffffffffffffffffffff16600460009054906101000a900473ffffffffffffffffffffffffffffffffffffffff1673ffffffffffffffffffffffffffffffffffffffff16145b6200034f57fe5b81600590805190602001906200036792919062000446565b5060019050919050565b60008073ffffffffffffffffffffffffffffffffffffffff16600460009054906101000a900473ffffffffffffffffffffffffffffffffffffffff1673ffffffffffffffffffffffffffffffffffffffff1614806200041d57503373ffffffffffffffffffffffffffffffffffffffff16600460009054906101000a900473ffffffffffffffffffffffffffffffffffffffff1673ffffffffffffffffffffffffffffffffffffffff16145b6200042457fe5b81600690805190602001906200043c92919062000446565b5060019050919050565b828054600181600116156101000203166002900490600052602060002090601f016020900481019282601f106200048957805160ff1916838001178555620004ba565b82800160010185558215620004ba579182015b82811115620004b95782518255916020019190600101906200049c565b5b509050620004c99190620004cd565b5090565b620004f291905b80821115620004ee576000816000905550600101620004d4565b5090565b90565b611b6580620005056000396000f3fe608060405234801561001057600080fd5b50600436106101215760003560e01c8063674ddb53116100ad578063a9059cbb11610071578063a9059cbb14610630578063b84c824614610696578063c47f002714610769578063d5abeb011461083c578063dd62ed3e1461085a57610121565b8063674ddb531461045b57806370a08231146104a55780638da5cb5b146104fd57806395d89b4114610547578063a457c2d7146105ca57610121565b806323b872dd116100f457806323b872dd146102895780632b3211941461030f578063313ce5671461036b578063395093511461038f57806340c10f19146103f557610121565b806306fdde0314610126578063095ea7b3146101a957806313af40351461020f57806318160ddd1461026b575b600080fd5b61012e6108d2565b6040518080602001828103825283818151815260200191508051906020019080838360005b8381101561016e578082015181840152602081019050610153565b50505050905090810190601f16801561019b5780820380516001836020036101000a031916815260200191505b509250505060405180910390f35b6101f5600480360360408110156101bf57600080fd5b81019080803573ffffffffffffffffffffffffffffffffffffffff16906020019092919080359060200190929190505050610970565b604051808215151515815260200191505060405180910390f35b6102516004803603602081101561022557600080fd5b81019080803573ffffffffffffffffffffffffffffffffffffffff169060200190929190505050610987565b604051808215151515815260200191505060405180910390f35b610273610a82565b6040518082815260200191505060405180910390f35b6102f56004803603606081101561029f57600080fd5b81019080803573ffffffffffffffffffffffffffffffffffffffff169060200190929190803573ffffffffffffffffffffffffffffffffffffffff16906020019092919080359060200190929190505050610a8c565b604051808215151515815260200191505060405180910390f35b6103516004803603602081101561032557600080fd5b81019080803573ffffffffffffffffffffffffffffffffffffffff169060200190929190505050610b3d565b604051808215151515815260200191505060405180910390f35b610373610c90565b604051808260ff1660ff16815260200191505060405180910390f35b6103db600480360360408110156103a557600080fd5b81019080803573ffffffffffffffffffffffffffffffffffffffff16906020019092919080359060200190929190505050610ca3565b604051808215151515815260200191505060405180910390f35b6104416004803603604081101561040b57600080fd5b81019080803573ffffffffffffffffffffffffffffffffffffffff16906020019092919080359060200190929190505050610d48565b604051808215151515815260200191505060405180910390f35b610463611019565b604051808273ffffffffffffffffffffffffffffffffffffffff1673ffffffffffffffffffffffffffffffffffffffff16815260200191505060405180910390f35b6104e7600480360360208110156104bb57600080fd5b81019080803573ffffffffffffffffffffffffffffffffffffffff16906020019092919050505061103f565b6040518082815260200191505060405180910390f35b610505611088565b604051808273ffffffffffffffffffffffffffffffffffffffff1673ffffffffffffffffffffffffffffffffffffffff16815260200191505060405180910390f35b61054f6110ae565b6040518080602001828103825283818151815260200191508051906020019080838360005b8381101561058f578082015181840152602081019050610574565b50505050905090810190601f1680156105bc5780820380516001836020036101000a031916815260200191505b509250505060405180910390f35b610616600480360360408110156105e057600080fd5b81019080803573ffffffffffffffffffffffffffffffffffffffff1690602001909291908035906020019092919050505061114c565b604051808215151515815260200191505060405180910390f35b61067c6004803603604081101561064657600080fd5b81019080803573ffffffffffffffffffffffffffffffffffffffff169060200190929190803590602001909291905050506111f1565b604051808215151515815260200191505060405180910390f35b61074f600480360360208110156106ac57600080fd5b81019080803590602001906401000000008111156106c957600080fd5b8201836020820111156106db57600080fd5b803590602001918460018302840111640100000000831117156106fd57600080fd5b91908080601f016020809104026020016040519081016040528093929190818152602001838380828437600081840152601f19601f820116905080830192505050505050509192919290505050611208565b604051808215151515815260200191505060405180910390f35b6108226004803603602081101561077f57600080fd5b810190808035906020019064010000000081111561079c57600080fd5b8201836020820111156107ae57600080fd5b803590602001918460018302840111640100000000831117156107d057600080fd5b91908080601f016020809104026020016040519081016040528093929190818152602001838380828437600081840152601f19601f8201169050808301925050505050505091929192905050506112d9565b604051808215151515815260200191505060405180910390f35b6108446113aa565b6040518082815260200191505060405180910390f35b6108bc6004803603604081101561087057600080fd5b81019080803573ffffffffffffffffffffffffffffffffffffffff169060200190929190803573ffffffffffffffffffffffffffffffffffffffff1690602001909291905050506113b0565b6040518082815260200191505060405180910390f35b60058054600181600116156101000203166002900480601f0160208091040260200160405190810160405280929190818152602001828054600181600116156101000203166002900480156109685780601f1061093d57610100808354040283529160200191610968565b820191906000526020600020905b81548152906001019060200180831161094b57829003601f168201915b505050505081565b600061097d338484611437565b6001905092915050565b60008073ffffffffffffffffffffffffffffffffffffffff16600460009054906101000a900473ffffffffffffffffffffffffffffffffffffffff1673ffffffffffffffffffffffffffffffffffffffff161480610a3257503373ffffffffffffffffffffffffffffffffffffffff16600460009054906101000a900473ffffffffffffffffffffffffffffffffffffffff1673ffffffffffffffffffffffffffffffffffffffff16145b610a3857fe5b81600460006101000a81548173ffffffffffffffffffffffffffffffffffffffff021916908373ffffffffffffffffffffffffffffffffffffffff16021790555060019050919050565b6000600954905090565b6000610a9984848461162e565b610b328433610b2d85600160008a73ffffffffffffffffffffffffffffffffffffffff1673ffffffffffffffffffffffffffffffffffffffff16815260200190815260200160002060003373ffffffffffffffffffffffffffffffffffffffff1673ffffffffffffffffffffffffffffffffffffffff168152602001908152602001600020546118ca90919063ffffffff16565b611437565b600190509392505050565b60008073ffffffffffffffffffffffffffffffffffffffff16600460009054906101000a900473ffffffffffffffffffffffffffffffffffffffff1673ffffffffffffffffffffffffffffffffffffffff161480610be857503373ffffffffffffffffffffffffffffffffffffffff16600460009054906101000a900473ffffffffffffffffffffffffffffffffffffffff1673ffffffffffffffffffffffffffffffffffffffff16145b610bee57fe5b600073ffffffffffffffffffffffffffffffffffffffff16600360009054906101000a900473ffffffffffffffffffffffffffffffffffffffff1673ffffffffffffffffffffffffffffffffffffffff1614610c4657fe5b81600360006101000a81548173ffffffffffffffffffffffffffffffffffffffff021916908373ffffffffffffffffffffffffffffffffffffffff16021790555060019050919050565b600760009054906101000a900460ff1681565b6000610d3e3384610d3985600160003373ffffffffffffffffffffffffffffffffffffffff1673ffffffffffffffffffffffffffffffffffffffff16815260200190815260200160002060008973ffffffffffffffffffffffffffffffffffffffff1673ffffffffffffffffffffffffffffffffffffffff1681526020019081526020016000205461195390919063ffffffff16565b611437565b6001905092915050565b60008073ffffffffffffffffffffffffffffffffffffffff16600460009054906101000a900473ffffffffffffffffffffffffffffffffffffffff1673ffffffffffffffffffffffffffffffffffffffff161480610df357503373ffffffffffffffffffffffffffffffffffffffff16600460009054906101000a900473ffffffffffffffffffffffffffffffffffffffff1673ffffffffffffffffffffffffffffffffffffffff16145b610df957fe5b600073ffffffffffffffffffffffffffffffffffffffff168373ffffffffffffffffffffffffffffffffffffffff161415610e9c576040517f08c379a000000000000000000000000000000000000000000000000000000000815260040180806020018281038252601f8152602001807f45524332303a206d696e7420746f20746865207a65726f20616464726573730081525060200191505060405180910390fd5b610eb18260095461195390919063ffffffff16565b6009819055506008546009541115610f14576040517f08c379a0000000000000000000000000000000000000000000000000000000008152600401808060200182810382526022815260200180611ac66022913960400191505060405180910390fd5b610f6682600a60008673ffffffffffffffffffffffffffffffffffffffff1673ffffffffffffffffffffffffffffffffffffffff1681526020019081526020016000205461195390919063ffffffff16565b600a60008573ffffffffffffffffffffffffffffffffffffffff1673ffffffffffffffffffffffffffffffffffffffff168152602001908152602001600020819055508273ffffffffffffffffffffffffffffffffffffffff16600073ffffffffffffffffffffffffffffffffffffffff167fddf252ad1be2c89b69c2b068fc378daa952ba7f163c4a11628f55a4df523b3ef846040518082815260200191505060405180910390a36001905092915050565b600360009054906101000a900473ffffffffffffffffffffffffffffffffffffffff1681565b6000600a60008373ffffffffffffffffffffffffffffffffffffffff1673ffffffffffffffffffffffffffffffffffffffff168152602001908152602001600020549050919050565b600460009054906101000a900473ffffffffffffffffffffffffffffffffffffffff1681565b60068054600181600116156101000203166002900480601f0160208091040260200160405190810160405280929190818152602001828054600181600116156101000203166002900480156111445780601f1061111957610100808354040283529160200191611144565b820191906000526020600020905b81548152906001019060200180831161112757829003601f168201915b505050505081565b60006111e733846111e285600160003373ffffffffffffffffffffffffffffffffffffffff1673ffffffffffffffffffffffffffffffffffffffff16815260200190815260200160002060008973ffffffffffffffffffffffffffffffffffffffff1673ffffffffffffffffffffffffffffffffffffffff168152602001908152602001600020546118ca90919063ffffffff16565b611437565b6001905092915050565b60006111fe33848461162e565b6001905092915050565b60008073ffffffffffffffffffffffffffffffffffffffff16600460009054906101000a900473ffffffffffffffffffffffffffffffffffffffff1673ffffffffffffffffffffffffffffffffffffffff1614806112b357503373ffffffffffffffffffffffffffffffffffffffff16600460009054906101000a900473ffffffffffffffffffffffffffffffffffffffff1673ffffffffffffffffffffffffffffffffffffffff16145b6112b957fe5b81600690805190602001906112cf9291906119db565b5060019050919050565b60008073ffffffffffffffffffffffffffffffffffffffff16600460009054906101000a900473ffffffffffffffffffffffffffffffffffffffff1673ffffffffffffffffffffffffffffffffffffffff16148061138457503373ffffffffffffffffffffffffffffffffffffffff16600460009054906101000a900473ffffffffffffffffffffffffffffffffffffffff1673ffffffffffffffffffffffffffffffffffffffff16145b61138a57fe5b81600590805190602001906113a09291906119db565b5060019050919050565b60085481565b6000600160008473ffffffffffffffffffffffffffffffffffffffff1673ffffffffffffffffffffffffffffffffffffffff16815260200190815260200160002060008373ffffffffffffffffffffffffffffffffffffffff1673ffffffffffffffffffffffffffffffffffffffff16815260200190815260200160002054905092915050565b600073ffffffffffffffffffffffffffffffffffffffff168373ffffffffffffffffffffffffffffffffffffffff1614156114bd576040517f08c379a0000000000000000000000000000000000000000000000000000000008152600401808060200182810382526024815260200180611b0d6024913960400191505060405180910390fd5b600073ffffffffffffffffffffffffffffffffffffffff168273ffffffffffffffffffffffffffffffffffffffff161415611543576040517f08c379a0000000000000000000000000000000000000000000000000000000008152600401808060200182810382526022815260200180611aa46022913960400191505060405180910390fd5b80600160008573ffffffffffffffffffffffffffffffffffffffff1673ffffffffffffffffffffffffffffffffffffffff16815260200190815260200160002060008473ffffffffffffffffffffffffffffffffffffffff1673ffffffffffffffffffffffffffffffffffffffff168152602001908152602001600020819055508173ffffffffffffffffffffffffffffffffffffffff168373ffffffffffffffffffffffffffffffffffffffff167f8c5be1e5ebec7d5bd14f71427d1e84f3dd0314c0f7b2291e5b200ac8c7c3b925836040518082815260200191505060405180910390a3505050565b600073ffffffffffffffffffffffffffffffffffffffff168373ffffffffffffffffffffffffffffffffffffffff1614156116b4576040517f08c379a0000000000000000000000000000000000000000000000000000000008152600401808060200182810382526025815260200180611ae86025913960400191505060405180910390fd5b600073ffffffffffffffffffffffffffffffffffffffff168273ffffffffffffffffffffffffffffffffffffffff16141561173a576040517f08c379a0000000000000000000000000000000000000000000000000000000008152600401808060200182810382526023815260200180611a816023913960400191505060405180910390fd5b61178b816000808673ffffffffffffffffffffffffffffffffffffffff1673ffffffffffffffffffffffffffffffffffffffff168152602001908152602001600020546118ca90919063ffffffff16565b6000808573ffffffffffffffffffffffffffffffffffffffff1673ffffffffffffffffffffffffffffffffffffffff1681526020019081526020016000208190555061181e816000808573ffffffffffffffffffffffffffffffffffffffff1673ffffffffffffffffffffffffffffffffffffffff1681526020019081526020016000205461195390919063ffffffff16565b6000808473ffffffffffffffffffffffffffffffffffffffff1673ffffffffffffffffffffffffffffffffffffffff168152602001908152602001600020819055508173ffffffffffffffffffffffffffffffffffffffff168373ffffffffffffffffffffffffffffffffffffffff167fddf252ad1be2c89b69c2b068fc378daa952ba7f163c4a11628f55a4df523b3ef836040518082815260200191505060405180910390a3505050565b600082821115611942576040517f08c379a000000000000000000000000000000000000000000000000000000000815260040180806020018281038252601e8152602001807f536166654d6174683a207375627472616374696f6e206f766572666c6f77000081525060200191505060405180910390fd5b600082840390508091505092915050565b6000808284019050838110156119d1576040517f08c379a000000000000000000000000000000000000000000000000000000000815260040180806020018281038252601b8152602001807f536166654d6174683a206164646974696f6e206f766572666c6f77000000000081525060200191505060405180910390fd5b8091505092915050565b828054600181600116156101000203166002900490600052602060002090601f016020900481019282601f10611a1c57805160ff1916838001178555611a4a565b82800160010185558215611a4a579182015b82811115611a49578251825591602001919060010190611a2e565b5b509050611a579190611a5b565b5090565b611a7d91905b80821115611a79576000816000905550600101611a61565b5090565b9056fe45524332303a207472616e7366657220746f20746865207a65726f206164647265737345524332303a20617070726f766520746f20746865207a65726f206164647265737345524332303a206d617820737570706c7920686173206265656e207265616368656445524332303a207472616e736665722066726f6d20746865207a65726f206164647265737345524332303a20617070726f76652066726f6d20746865207a65726f2061646472657373a265627a7a72305820c8ae535f0e92a5b41ef7c5bf3d8235603f035f489bbeed2005bd2f71d2eae55f64736f6c634300050a0032323130303a204f776e65722063616e6e6f742063616c6c20746869732066756e6374696f6e323130303a2053656e6465722068617320696e737566666963656e742066756e647320746f207769746864726177323130303a20436f6e74726f6c6c657220646f6573206e6f74206861766520656e6f75676820616c6c6f77616e6365206772616e746564323130303a2053656e64657220646f6573206e6f7420686176652073756666696369656e742062616c616e636520746f206465706f736974323130303a205472616e736665722066726f6d20436f6e74726f6c6c657220746f2053656e646572206661696c6564323130303a20416d6f756e7420746f6f20736d616c6c20746f206465706f7369743b205265717569726573206174206c6561737420302e303120444149323130303a2053656e6465722062616c616e63652063616e6e6f74206265207a65726f323130303a2074686973206d6573736167652068617320616c65616479206265656e2070726f63657373323130303a20436f6e74726f6c6c65722068617320696e737566666963656e742066756e647320746f207769746864726177a265627a7a7230582003ffea36c70177875e41a3aab78b7814bb87766b4aeca61b04310a17653ada6364736f6c634300050a0032",
  "source": "pragma solidity ^0.5.10;\n\nimport \"./libraries/SafeMath.sol\";\nimport \"./classes/ERC20.sol\";\nimport \"./classes/Claimer.sol\";\nimport \"./classes/Minter.sol\";\nimport \"./classes/Creator.sol\";\n\ncontract Controller is Creator, Minter {\n    using SafeMath for uint256;\n\n    uint256 public minDeposit = 10 ** 16; // 0.01 DAI\n    string public name = \"2100 Locked DAI\";\n    string public symbol = \"2100DAI\";\n    uint8 public decimals = 18;\n\n    event Deposit(address indexed account, uint256 amount, uint256 balance);\n    event Withdraw(address indexed account, uint256 amount, uint256 balance);\n    event Owner(address indexed owner);\n    event DAIAddress(address indexed daiAddress);\n\n    mapping(address => uint256) private _balances;\n\n    ERC20 public DAI;\n\n    constructor(address daiAddress) public {\n        setOwner(msg.sender);\n        setDaiAddress(daiAddress);\n    }\n\n    function setOwner(address _address) public onlyOwner returns (bool) {\n        owner = _address;\n        emit Owner(_address);\n        return true;\n    }\n\n    function setDaiAddress(address daiAddress) public onlyOwner returns (bool) {\n        assert(daiAddress != address(0));\n        DAI = ERC20(daiAddress);\n        emit DAIAddress(daiAddress);\n        return true;\n    }\n\n    function deposit(uint256 _amount) public notOwner returns (bool) {\n        uint256 amount = floor(_amount); // cut of greater than 2 decimal places\n\n        require(\n            amount > 0,\n            \"2100: Amount too small to deposit; Requires at least 0.01 DAI\"\n        );\n        require(\n            DAI.allowance(msg.sender, address(this)) >= amount,\n            \"2100: Controller does not have enough allowance granted\"\n        );\n        require(\n            DAI.balanceOf(msg.sender) >= amount,\n            \"2100: Sender does not have sufficient balance to deposit\"\n        );\n        require(\n            DAI.balanceOf(msg.sender) > 0,\n            \"2100: Sender balance cannot be zero\"\n        );\n\n        require(\n            DAI.transferFrom(msg.sender, address(this), amount),\n            \"2100: DAI transfer failed\"\n        );\n\n        _balances[msg.sender] = _balances[msg.sender].add(amount);\n        emit Deposit(msg.sender, amount, _balances[msg.sender]);\n        return true;\n    }\n\n    function withdraw(uint256 amount) public notOwner returns (bool) {\n        require(\n            _balances[msg.sender] >= amount,\n            \"2100: Sender has insufficent funds to withdraw\"\n        );\n        require(\n            DAI.balanceOf(address(this)) >= amount,\n            \"2100: Controller has insufficent funds to withdraw\"\n        );\n\n        require(\n            DAI.transfer(msg.sender, amount),\n            \"2100: Transfer from Controller to Sender failed\"\n        );\n\n        _balances[msg.sender] = _balances[msg.sender].sub(amount);\n        emit Withdraw(msg.sender, amount, _balances[msg.sender]);\n        return true;\n    }\n\n    function balanceOf(address account) public view returns (uint256) {\n        return _balances[account];\n    }\n\n    function totalSupply() public view returns (uint256) {\n        return DAI.balanceOf(address(this));\n    }\n\n    function floor(uint256 amount) internal view returns (uint256) {\n        return amount.sub(amount.mod(minDeposit));\n    }\n\n}\n",
  "sourcePath": "/usr/src/app/contracts/Controller.sol",
  "compiler": {
    "name": "solc",
    "version": "0.5.10+commit.5a6ea5b1.Emscripten.clang"
  },
  "schemaVersion": "3.0.11",
  "updatedAt": "2019-08-08T16:10:26.331Z",
  "devdoc": {
    "methods": {}
  },
  "userdoc": {
    "methods": {}
  }
}