{
  "contractName": "Controller",
  "abi": [
    {
      "constant": true,
      "inputs": [],
      "name": "name",
      "outputs": [
        {
          "name": "",
          "type": "string"
        }
      ],
      "payable": false,
      "stateMutability": "view",
      "type": "function"
    },
    {
      "constant": true,
      "inputs": [
        {
          "name": "",
          "type": "address"
        }
      ],
      "name": "tokenToAccountOwner",
      "outputs": [
        {
          "name": "",
          "type": "address"
        }
      ],
      "payable": false,
      "stateMutability": "view",
      "type": "function"
    },
    {
      "constant": true,
      "inputs": [
        {
          "name": "",
          "type": "address"
        }
      ],
      "name": "tokenToSymbol",
      "outputs": [
        {
          "name": "",
          "type": "string"
        }
      ],
      "payable": false,
      "stateMutability": "view",
      "type": "function"
    },
    {
      "constant": true,
      "inputs": [
        {
          "name": "signer",
          "type": "address"
        },
        {
          "name": "hash",
          "type": "bytes32"
        },
        {
          "name": "signature",
          "type": "bytes"
        }
      ],
      "name": "isValidSignature",
      "outputs": [
        {
          "name": "_valid",
          "type": "bool"
        }
      ],
      "payable": false,
      "stateMutability": "pure",
      "type": "function"
    },
    {
      "constant": true,
      "inputs": [],
      "name": "decimals",
      "outputs": [
        {
          "name": "",
          "type": "uint8"
        }
      ],
      "payable": false,
      "stateMutability": "view",
      "type": "function"
    },
    {
      "constant": true,
      "inputs": [
        {
          "name": "symbol",
          "type": "string"
        }
      ],
      "name": "getCreateHash",
      "outputs": [
        {
          "name": "_hash",
          "type": "bytes32"
        }
      ],
      "payable": false,
      "stateMutability": "pure",
      "type": "function"
    },
    {
      "constant": false,
      "inputs": [
        {
          "name": "token",
          "type": "address"
        },
        {
          "name": "accountOwner",
          "type": "address"
        },
        {
          "name": "hash",
          "type": "bytes32"
        },
        {
          "name": "v",
          "type": "uint8"
        },
        {
          "name": "r",
          "type": "bytes32"
        },
        {
          "name": "s",
          "type": "bytes32"
        }
      ],
      "name": "claim",
      "outputs": [
        {
          "name": "",
          "type": "bool"
        }
      ],
      "payable": false,
      "stateMutability": "nonpayable",
      "type": "function"
    },
    {
      "constant": true,
      "inputs": [],
      "name": "minDeposit",
      "outputs": [
        {
          "name": "",
          "type": "uint256"
        }
      ],
      "payable": false,
      "stateMutability": "view",
      "type": "function"
    },
    {
      "constant": true,
      "inputs": [
        {
          "name": "token",
          "type": "address"
        },
        {
          "name": "accountOwner",
          "type": "address"
        }
      ],
      "name": "getClaimHash",
      "outputs": [
        {
          "name": "_hash",
          "type": "bytes32"
        }
      ],
      "payable": false,
      "stateMutability": "pure",
      "type": "function"
    },
    {
      "constant": true,
      "inputs": [
        {
          "name": "",
          "type": "uint256"
        }
      ],
      "name": "tokens",
      "outputs": [
        {
          "name": "",
          "type": "address"
        }
      ],
      "payable": false,
      "stateMutability": "view",
      "type": "function"
    },
    {
      "constant": true,
      "inputs": [
        {
          "name": "messageId",
          "type": "bytes32"
        }
      ],
      "name": "seenMessage",
      "outputs": [
        {
          "name": "_seen",
          "type": "bool"
        }
      ],
      "payable": false,
      "stateMutability": "view",
      "type": "function"
    },
    {
      "constant": true,
      "inputs": [
        {
          "name": "",
          "type": "bytes32"
        }
      ],
      "name": "signedMessages",
      "outputs": [
        {
          "name": "",
          "type": "uint256"
        }
      ],
      "payable": false,
      "stateMutability": "view",
      "type": "function"
    },
    {
      "constant": true,
      "inputs": [
        {
          "name": "signer",
          "type": "address"
        },
        {
          "name": "hash",
          "type": "bytes32"
        },
        {
          "name": "v",
          "type": "uint8"
        },
        {
          "name": "r",
          "type": "bytes32"
        },
        {
          "name": "s",
          "type": "bytes32"
        }
      ],
      "name": "isValidSignature",
      "outputs": [
        {
          "name": "_valid",
          "type": "bool"
        }
      ],
      "payable": false,
      "stateMutability": "pure",
      "type": "function"
    },
    {
      "constant": true,
      "inputs": [],
      "name": "owner",
      "outputs": [
        {
          "name": "",
          "type": "address"
        }
      ],
      "payable": false,
      "stateMutability": "view",
      "type": "function"
    },
    {
      "constant": true,
      "inputs": [],
      "name": "symbol",
      "outputs": [
        {
          "name": "",
          "type": "string"
        }
      ],
      "payable": false,
      "stateMutability": "view",
      "type": "function"
    },
    {
      "constant": true,
      "inputs": [
        {
          "name": "",
          "type": "string"
        }
      ],
      "name": "symbolToToken",
      "outputs": [
        {
          "name": "",
          "type": "address"
        }
      ],
      "payable": false,
      "stateMutability": "view",
      "type": "function"
    },
    {
      "constant": false,
      "inputs": [
        {
          "name": "token",
          "type": "address"
        },
        {
          "name": "amount",
          "type": "uint256"
        },
        {
          "name": "salt",
          "type": "uint256"
        },
        {
          "name": "hash",
          "type": "bytes32"
        },
        {
          "name": "v",
          "type": "uint8"
        },
        {
          "name": "r",
          "type": "bytes32"
        },
        {
          "name": "s",
          "type": "bytes32"
        }
      ],
      "name": "mint",
      "outputs": [
        {
          "name": "",
          "type": "bool"
        }
      ],
      "payable": false,
      "stateMutability": "nonpayable",
      "type": "function"
    },
    {
      "constant": true,
      "inputs": [
        {
          "name": "token",
          "type": "address"
        },
        {
          "name": "account",
          "type": "address"
        },
        {
          "name": "amount",
          "type": "uint256"
        },
        {
          "name": "salt",
          "type": "uint256"
        }
      ],
      "name": "getMintHash",
      "outputs": [
        {
          "name": "_hash",
          "type": "bytes32"
        }
      ],
      "payable": false,
      "stateMutability": "pure",
      "type": "function"
    },
    {
      "constant": true,
      "inputs": [
        {
          "name": "",
          "type": "bytes32"
        }
      ],
      "name": "messageIdToBlockNumber",
      "outputs": [
        {
          "name": "",
          "type": "uint256"
        }
      ],
      "payable": false,
      "stateMutability": "view",
      "type": "function"
    },
    {
      "constant": true,
      "inputs": [
        {
          "name": "token",
          "type": "address"
        }
      ],
      "name": "isAccountOwnerClaimed",
      "outputs": [
        {
          "name": "",
          "type": "bool"
        }
      ],
      "payable": false,
      "stateMutability": "view",
      "type": "function"
    },
    {
      "constant": true,
      "inputs": [],
      "name": "tokenLength",
      "outputs": [
        {
          "name": "",
          "type": "uint256"
        }
      ],
      "payable": false,
      "stateMutability": "view",
      "type": "function"
    },
    {
      "constant": true,
      "inputs": [],
      "name": "DAI",
      "outputs": [
        {
          "name": "",
          "type": "address"
        }
      ],
      "payable": false,
      "stateMutability": "view",
      "type": "function"
    },
    {
      "constant": false,
      "inputs": [
        {
          "name": "symbol",
          "type": "string"
        },
        {
          "name": "hash",
          "type": "bytes32"
        },
        {
          "name": "v",
          "type": "uint8"
        },
        {
          "name": "r",
          "type": "bytes32"
        },
        {
          "name": "s",
          "type": "bytes32"
        }
      ],
      "name": "create",
      "outputs": [
        {
          "name": "",
          "type": "bool"
        }
      ],
      "payable": false,
      "stateMutability": "nonpayable",
      "type": "function"
    },
    {
      "constant": true,
      "inputs": [],
      "name": "admin",
      "outputs": [
        {
          "name": "",
          "type": "address"
        }
      ],
      "payable": false,
      "stateMutability": "view",
      "type": "function"
    },
    {
      "inputs": [
        {
          "name": "daiAddress",
          "type": "address"
        }
      ],
      "payable": false,
      "stateMutability": "nonpayable",
      "type": "constructor"
    },
    {
      "anonymous": false,
      "inputs": [
        {
          "indexed": true,
          "name": "account",
          "type": "address"
        },
        {
          "indexed": false,
          "name": "amount",
          "type": "uint256"
        },
        {
          "indexed": false,
          "name": "balance",
          "type": "uint256"
        }
      ],
      "name": "Deposit",
      "type": "event"
    },
    {
      "anonymous": false,
      "inputs": [
        {
          "indexed": true,
          "name": "account",
          "type": "address"
        },
        {
          "indexed": false,
          "name": "amount",
          "type": "uint256"
        },
        {
          "indexed": false,
          "name": "balance",
          "type": "uint256"
        }
      ],
      "name": "Withdraw",
      "type": "event"
    },
    {
      "anonymous": false,
      "inputs": [
        {
          "indexed": true,
          "name": "owner",
          "type": "address"
        }
      ],
      "name": "Owner",
      "type": "event"
    },
    {
      "anonymous": false,
      "inputs": [
        {
          "indexed": true,
          "name": "daiAddress",
          "type": "address"
        }
      ],
      "name": "DAIAddress",
      "type": "event"
    },
    {
      "anonymous": false,
      "inputs": [
        {
          "indexed": true,
          "name": "symbol",
          "type": "string"
        },
        {
          "indexed": true,
          "name": "token",
          "type": "address"
        },
        {
          "indexed": false,
          "name": "creator",
          "type": "address"
        }
      ],
      "name": "Create",
      "type": "event"
    },
    {
      "anonymous": false,
      "inputs": [
        {
          "indexed": true,
          "name": "token",
          "type": "address"
        },
        {
          "indexed": true,
          "name": "account",
          "type": "address"
        },
        {
          "indexed": false,
          "name": "amount",
          "type": "uint256"
        },
        {
          "indexed": false,
          "name": "hash",
          "type": "bytes32"
        }
      ],
      "name": "Mint",
      "type": "event"
    },
    {
      "anonymous": false,
      "inputs": [
        {
          "indexed": true,
          "name": "token",
          "type": "address"
        },
        {
          "indexed": true,
          "name": "accountOwner",
          "type": "address"
        },
        {
          "indexed": false,
          "name": "hash",
          "type": "bytes32"
        }
      ],
      "name": "AccountOwnerClaim",
      "type": "event"
    },
    {
      "constant": false,
      "inputs": [
        {
          "name": "_address",
          "type": "address"
        }
      ],
      "name": "setOwner",
      "outputs": [
        {
          "name": "",
          "type": "bool"
        }
      ],
      "payable": false,
      "stateMutability": "nonpayable",
      "type": "function"
    },
    {
      "constant": false,
      "inputs": [
        {
          "name": "daiAddress",
          "type": "address"
        }
      ],
      "name": "setDaiAddress",
      "outputs": [
        {
          "name": "",
          "type": "bool"
        }
      ],
      "payable": false,
      "stateMutability": "nonpayable",
      "type": "function"
    },
    {
      "constant": false,
      "inputs": [
        {
          "name": "_amount",
          "type": "uint256"
        }
      ],
      "name": "deposit",
      "outputs": [
        {
          "name": "",
          "type": "bool"
        }
      ],
      "payable": false,
      "stateMutability": "nonpayable",
      "type": "function"
    },
    {
      "constant": false,
      "inputs": [
        {
          "name": "amount",
          "type": "uint256"
        }
      ],
      "name": "withdraw",
      "outputs": [
        {
          "name": "",
          "type": "bool"
        }
      ],
      "payable": false,
      "stateMutability": "nonpayable",
      "type": "function"
    },
    {
      "constant": true,
      "inputs": [
        {
          "name": "account",
          "type": "address"
        }
      ],
      "name": "balanceOf",
      "outputs": [
        {
          "name": "",
          "type": "uint256"
        }
      ],
      "payable": false,
      "stateMutability": "view",
      "type": "function"
    },
    {
      "constant": true,
      "inputs": [],
      "name": "totalSupply",
      "outputs": [
        {
          "name": "",
          "type": "uint256"
        }
      ],
      "payable": false,
      "stateMutability": "view",
      "type": "function"
    }
  ],
  "bytecode": "0x6080604052662386f26fc100006009556040518060400160405280600f81526020017f32313030204c6f636b6564204441490000000000000000000000000000000000815250600a90805190602001906200005c929190620003ee565b506040518060400160405280600781526020017f3231303044414900000000000000000000000000000000000000000000000000815250600b9080519060200190620000aa929190620003ee565b506012600c60006101000a81548160ff021916908360ff160217905550348015620000d457600080fd5b50604051620057c9380380620057c983398181016040526020811015620000fa57600080fd5b81019080805190602001909291905050506200011c336200013660201b60201c565b506200012e816200027660201b60201c565b50506200049d565b60008073ffffffffffffffffffffffffffffffffffffffff16600f60009054906101000a900473ffffffffffffffffffffffffffffffffffffffff1673ffffffffffffffffffffffffffffffffffffffff161480620001e257503373ffffffffffffffffffffffffffffffffffffffff16600f60009054906101000a900473ffffffffffffffffffffffffffffffffffffffff1673ffffffffffffffffffffffffffffffffffffffff16145b620001e957fe5b81600f60006101000a81548173ffffffffffffffffffffffffffffffffffffffff021916908373ffffffffffffffffffffffffffffffffffffffff1602179055508173ffffffffffffffffffffffffffffffffffffffff167fa5e220c2c27d986cc8efeafa8f34ba6ea6bf96a34e146b29b6bdd8587771b13060405160405180910390a260019050919050565b60008073ffffffffffffffffffffffffffffffffffffffff16600f60009054906101000a900473ffffffffffffffffffffffffffffffffffffffff1673ffffffffffffffffffffffffffffffffffffffff1614806200032257503373ffffffffffffffffffffffffffffffffffffffff16600f60009054906101000a900473ffffffffffffffffffffffffffffffffffffffff1673ffffffffffffffffffffffffffffffffffffffff16145b6200032957fe5b600073ffffffffffffffffffffffffffffffffffffffff168273ffffffffffffffffffffffffffffffffffffffff1614156200036157fe5b81600e60006101000a81548173ffffffffffffffffffffffffffffffffffffffff021916908373ffffffffffffffffffffffffffffffffffffffff1602179055508173ffffffffffffffffffffffffffffffffffffffff167f6768ecc4502721534959d1b99640aad4829d2ac886647e4c55ea5eb6b6a181af60405160405180910390a260019050919050565b828054600181600116156101000203166002900490600052602060002090601f016020900481019282601f106200043157805160ff191683800117855562000462565b8280016001018555821562000462579182015b828111156200046157825182559160200191906001019062000444565b5b50905062000471919062000475565b5090565b6200049a91905b80821115620004965760008160009055506001016200047c565b5090565b90565b61531c80620004ad6000396000f3fe60806040523480156200001157600080fd5b5060043610620002085760003560e01c806370a08231116200011d578063ac55d2fc11620000b1578063de66341e116200007b578063de66341e1462000e1c578063e0bab4c41462000e3c578063e5aba6b51462000e88578063f851a4401462000f8c5762000208565b8063ac55d2fc1462000ca0578063b6b55f251462000d2f578063ba29ba401462000d78578063c156f41d1462000dbd5762000208565b806395d89b4111620000f357806395d89b411462000a1a578063a5bc29c21462000aa2578063a66935901462000ba3578063a733dbe71462000c025762000208565b806370a0823114620008e95780638163681e14620009445780638da5cb5b14620009ce5762000208565b8063313ce56711620001a15780634f6462e2116200016b5780634f6462e2146200076f5780634f64b2be14620007ea57806358da3a8d146200085b5780635ae6bd3714620008a45762000208565b8063313ce56714620005aa57806339a395d614620005d05780633c2cc09014620006a557806341b3d185146200074f5762000208565b806313af403511620001e357806313af403514620003df57806318160ddd146200043e578063238a4d1e146200045e5780632e1a7d4d14620005615762000208565b806306fdde03146200020d57806307f77db414620002955780630ba36121146200031c575b600080fd5b6200021762000fd8565b6040518080602001828103825283818151815260200191508051906020019080838360005b83811015620002595780820151818401526020810190506200023c565b50505050905090810190601f168015620002875780820380516001836020036101000a031916815260200191505b509250505060405180910390f35b620002da60048036036020811015620002ad57600080fd5b81019080803573ffffffffffffffffffffffffffffffffffffffff1690602001909291905050506200107a565b604051808273ffffffffffffffffffffffffffffffffffffffff1673ffffffffffffffffffffffffffffffffffffffff16815260200191505060405180910390f35b62000361600480360360208110156200033457600080fd5b81019080803573ffffffffffffffffffffffffffffffffffffffff169060200190929190505050620010ad565b6040518080602001828103825283818151815260200191508051906020019080838360005b83811015620003a357808201518184015260208101905062000386565b50505050905090810190601f168015620003d15780820380516001836020036101000a031916815260200191505b509250505060405180910390f35b6200042460048036036020811015620003f757600080fd5b81019080803573ffffffffffffffffffffffffffffffffffffffff16906020019092919050505062001161565b604051808215151515815260200191505060405180910390f35b62000448620012a1565b6040518082815260200191505060405180910390f35b62000547600480360360608110156200047657600080fd5b81019080803573ffffffffffffffffffffffffffffffffffffffff1690602001909291908035906020019092919080359060200190640100000000811115620004be57600080fd5b820183602082011115620004d157600080fd5b80359060200191846001830284011164010000000083111715620004f457600080fd5b91908080601f016020809104026020016040519081016040528093929190818152602001838380828437600081840152601f19601f82011690508083019250505050505050919291929050505062001385565b604051808215151515815260200191505060405180910390f35b62000590600480360360208110156200057957600080fd5b8101908080359060200190929190505050620013dd565b604051808215151515815260200191505060405180910390f35b620005b4620018cc565b604051808260ff1660ff16815260200191505060405180910390f35b6200068f60048036036020811015620005e857600080fd5b81019080803590602001906401000000008111156200060657600080fd5b8201836020820111156200061957600080fd5b803590602001918460018302840111640100000000831117156200063c57600080fd5b91908080601f016020809104026020016040519081016040528093929190818152602001838380828437600081840152601f19601f820116905080830192505050505050509192919290505050620018df565b6040518082815260200191505060405180910390f35b62000735600480360360c0811015620006bd57600080fd5b81019080803573ffffffffffffffffffffffffffffffffffffffff169060200190929190803573ffffffffffffffffffffffffffffffffffffffff16906020019092919080359060200190929190803560ff169060200190929190803590602001909291908035906020019092919050505062001984565b604051808215151515815260200191505060405180910390f35b6200075962001c4e565b6040518082815260200191505060405180910390f35b620007d4600480360360408110156200078757600080fd5b81019080803573ffffffffffffffffffffffffffffffffffffffff169060200190929190803573ffffffffffffffffffffffffffffffffffffffff16906020019092919050505062001c54565b6040518082815260200191505060405180910390f35b62000819600480360360208110156200080257600080fd5b810190808035906020019092919050505062001d13565b604051808273ffffffffffffffffffffffffffffffffffffffff1673ffffffffffffffffffffffffffffffffffffffff16815260200191505060405180910390f35b6200088a600480360360208110156200087357600080fd5b810190808035906020019092919050505062001d50565b604051808215151515815260200191505060405180910390f35b620008d360048036036020811015620008bc57600080fd5b810190808035906020019092919050505062001d6e565b6040518082815260200191505060405180910390f35b6200092e600480360360208110156200090157600080fd5b81019080803573ffffffffffffffffffffffffffffffffffffffff16906020019092919050505062001d86565b6040518082815260200191505060405180910390f35b620009b4600480360360a08110156200095c57600080fd5b81019080803573ffffffffffffffffffffffffffffffffffffffff16906020019092919080359060200190929190803560ff169060200190929190803590602001909291908035906020019092919050505062001dcf565b604051808215151515815260200191505060405180910390f35b620009d862001e2d565b604051808273ffffffffffffffffffffffffffffffffffffffff1673ffffffffffffffffffffffffffffffffffffffff16815260200191505060405180910390f35b62000a2462001e53565b6040518080602001828103825283818151815260200191508051906020019080838360005b8381101562000a6657808201518184015260208101905062000a49565b50505050905090810190601f16801562000a945780820380516001836020036101000a031916815260200191505b509250505060405180910390f35b62000b616004803603602081101562000aba57600080fd5b810190808035906020019064010000000081111562000ad857600080fd5b82018360208201111562000aeb57600080fd5b8035906020019184600183028401116401000000008311171562000b0e57600080fd5b91908080601f016020809104026020016040519081016040528093929190818152602001838380828437600081840152601f19601f82011690508083019250505050505050919291929050505062001ef5565b604051808273ffffffffffffffffffffffffffffffffffffffff1673ffffffffffffffffffffffffffffffffffffffff16815260200191505060405180910390f35b62000be86004803603602081101562000bbb57600080fd5b81019080803573ffffffffffffffffffffffffffffffffffffffff16906020019092919050505062001f3e565b604051808215151515815260200191505060405180910390f35b62000c86600480360360e081101562000c1a57600080fd5b81019080803573ffffffffffffffffffffffffffffffffffffffff169060200190929190803590602001909291908035906020019092919080359060200190929190803560ff1690602001909291908035906020019092919080359060200190929190505050620020b6565b604051808215151515815260200191505060405180910390f35b62000d196004803603608081101562000cb857600080fd5b81019080803573ffffffffffffffffffffffffffffffffffffffff169060200190929190803573ffffffffffffffffffffffffffffffffffffffff1690602001909291908035906020019092919080359060200190929190505050620022b7565b6040518082815260200191505060405180910390f35b62000d5e6004803603602081101562000d4757600080fd5b810190808035906020019092919050505062002388565b604051808215151515815260200191505060405180910390f35b62000da76004803603602081101562000d9057600080fd5b810190808035906020019092919050505062002b3a565b6040518082815260200191505060405180910390f35b62000e026004803603602081101562000dd557600080fd5b81019080803573ffffffffffffffffffffffffffffffffffffffff16906020019092919050505062002b52565b604051808215151515815260200191505060405180910390f35b62000e2662002bea565b6040518082815260200191505060405180910390f35b62000e4662002bf7565b604051808273ffffffffffffffffffffffffffffffffffffffff1673ffffffffffffffffffffffffffffffffffffffff16815260200191505060405180910390f35b62000f72600480360360a081101562000ea057600080fd5b810190808035906020019064010000000081111562000ebe57600080fd5b82018360208201111562000ed157600080fd5b8035906020019184600183028401116401000000008311171562000ef457600080fd5b91908080601f016020809104026020016040519081016040528093929190818152602001838380828437600081840152601f19601f82011690508083019250505050505050919291929080359060200190929190803560ff169060200190929190803590602001909291908035906020019092919050505062002c1d565b604051808215151515815260200191505060405180910390f35b62000f9662002f5a565b604051808273ffffffffffffffffffffffffffffffffffffffff1673ffffffffffffffffffffffffffffffffffffffff16815260200191505060405180910390f35b600a8054600181600116156101000203166002900480601f016020809104026020016040519081016040528092919081815260200182805460018160011615610100020316600290048015620010725780601f10620010465761010080835404028352916020019162001072565b820191906000526020600020905b8154815290600101906020018083116200105457829003601f168201915b505050505081565b60036020528060005260406000206000915054906101000a900473ffffffffffffffffffffffffffffffffffffffff1681565b60076020528060005260406000206000915090508054600181600116156101000203166002900480601f016020809104026020016040519081016040528092919081815260200182805460018160011615610100020316600290048015620011595780601f106200112d5761010080835404028352916020019162001159565b820191906000526020600020905b8154815290600101906020018083116200113b57829003601f168201915b505050505081565b60008073ffffffffffffffffffffffffffffffffffffffff16600f60009054906101000a900473ffffffffffffffffffffffffffffffffffffffff1673ffffffffffffffffffffffffffffffffffffffff1614806200120d57503373ffffffffffffffffffffffffffffffffffffffff16600f60009054906101000a900473ffffffffffffffffffffffffffffffffffffffff1673ffffffffffffffffffffffffffffffffffffffff16145b6200121457fe5b81600f60006101000a81548173ffffffffffffffffffffffffffffffffffffffff021916908373ffffffffffffffffffffffffffffffffffffffff1602179055508173ffffffffffffffffffffffffffffffffffffffff167fa5e220c2c27d986cc8efeafa8f34ba6ea6bf96a34e146b29b6bdd8587771b13060405160405180910390a260019050919050565b6000600e60009054906101000a900473ffffffffffffffffffffffffffffffffffffffff1673ffffffffffffffffffffffffffffffffffffffff166370a08231306040518263ffffffff1660e01b8152600401808273ffffffffffffffffffffffffffffffffffffffff1673ffffffffffffffffffffffffffffffffffffffff16815260200191505060206040518083038186803b1580156200134357600080fd5b505afa15801562001358573d6000803e3d6000fd5b505050506040513d60208110156200136f57600080fd5b8101908080519060200190929190505050905090565b6000620013a682620013978562002f80565b62002fd890919063ffffffff16565b73ffffffffffffffffffffffffffffffffffffffff168473ffffffffffffffffffffffffffffffffffffffff161490509392505050565b60003373ffffffffffffffffffffffffffffffffffffffff16600f60009054906101000a900473ffffffffffffffffffffffffffffffffffffffff1673ffffffffffffffffffffffffffffffffffffffff16141562001488576040517f08c379a0000000000000000000000000000000000000000000000000000000008152600401808060200182810382526025815260200180620051656025913960400191505060405180910390fd5b81600d60003373ffffffffffffffffffffffffffffffffffffffff1673ffffffffffffffffffffffffffffffffffffffff16815260200190815260200160002054101562001522576040517f08c379a000000000000000000000000000000000000000000000000000000000815260040180806020018281038252602e8152602001806200518a602e913960400191505060405180910390fd5b81600e60009054906101000a900473ffffffffffffffffffffffffffffffffffffffff1673ffffffffffffffffffffffffffffffffffffffff166370a08231306040518263ffffffff1660e01b8152600401808273ffffffffffffffffffffffffffffffffffffffff1673ffffffffffffffffffffffffffffffffffffffff16815260200191505060206040518083038186803b158015620015c357600080fd5b505afa158015620015d8573d6000803e3d6000fd5b505050506040513d6020811015620015ef57600080fd5b8101908080519060200190929190505050101562001659576040517f08c379a0000000000000000000000000000000000000000000000000000000008152600401808060200182810382526032815260200180620052b66032913960400191505060405180910390fd5b600e60009054906101000a900473ffffffffffffffffffffffffffffffffffffffff1673ffffffffffffffffffffffffffffffffffffffff1663a9059cbb33846040518363ffffffff1660e01b8152600401808373ffffffffffffffffffffffffffffffffffffffff1673ffffffffffffffffffffffffffffffffffffffff16815260200182815260200192505050602060405180830381600087803b1580156200170357600080fd5b505af115801562001718573d6000803e3d6000fd5b505050506040513d60208110156200172f57600080fd5b810190808051906020019092919050505062001797576040517f08c379a000000000000000000000000000000000000000000000000000000000815260040180806020018281038252602f81526020018062005227602f913960400191505060405180910390fd5b620017eb82600d60003373ffffffffffffffffffffffffffffffffffffffff1673ffffffffffffffffffffffffffffffffffffffff16815260200190815260200160002054620030e490919063ffffffff16565b600d60003373ffffffffffffffffffffffffffffffffffffffff1673ffffffffffffffffffffffffffffffffffffffff168152602001908152602001600020819055503373ffffffffffffffffffffffffffffffffffffffff167ff279e6a1f5e320cca91135676d9cb6e44ca8a08c0b88342bcdb1144f6511b56883600d60003373ffffffffffffffffffffffffffffffffffffffff1673ffffffffffffffffffffffffffffffffffffffff16815260200190815260200160002054604051808381526020018281526020019250505060405180910390a260019050919050565b600c60009054906101000a900460ff1681565b60008160405160200180807f435245415445000000000000000000000000000000000000000000000000000081525060060182805190602001908083835b602083106200194257805182526020820191506020810190506020830392506200191d565b6001836020036101000a038019825116818451168082178552505050505050905001915050604051602081830303815290604052805190602001209050919050565b60008460001515620019968262001d50565b151514620019a057fe5b600160009054906101000a900473ffffffffffffffffffffffffffffffffffffffff1686868686620019d6858585858562001dcf565b620019dd57fe5b600073ffffffffffffffffffffffffffffffffffffffff16600360008f73ffffffffffffffffffffffffffffffffffffffff1673ffffffffffffffffffffffffffffffffffffffff16815260200190815260200160002060009054906101000a900473ffffffffffffffffffffffffffffffffffffffff1673ffffffffffffffffffffffffffffffffffffffff161462001a7357fe5b62001a7f8d8d62001c54565b8b1462001a8857fe5b8c73ffffffffffffffffffffffffffffffffffffffff16632b3211948d6040518263ffffffff1660e01b8152600401808273ffffffffffffffffffffffffffffffffffffffff1673ffffffffffffffffffffffffffffffffffffffff168152602001915050602060405180830381600087803b15801562001b0857600080fd5b505af115801562001b1d573d6000803e3d6000fd5b505050506040513d602081101562001b3457600080fd5b810190808051906020019092919050505062001b4c57fe5b62001b578b6200316e565b8b600360008f73ffffffffffffffffffffffffffffffffffffffff1673ffffffffffffffffffffffffffffffffffffffff16815260200190815260200160002060006101000a81548173ffffffffffffffffffffffffffffffffffffffff021916908373ffffffffffffffffffffffffffffffffffffffff1602179055508b73ffffffffffffffffffffffffffffffffffffffff168d73ffffffffffffffffffffffffffffffffffffffff167fa3dd9da7dca2cd6e01451541aa5a16c769627606a05919d52fd7670cfb8d63ff8d6040518082815260200191505060405180910390a3600196505050505050509695505050505050565b60095481565b6000828260405160200180807f434c41494d0000000000000000000000000000000000000000000000000000008152506005018373ffffffffffffffffffffffffffffffffffffffff1673ffffffffffffffffffffffffffffffffffffffff1660601b81526014018273ffffffffffffffffffffffffffffffffffffffff1673ffffffffffffffffffffffffffffffffffffffff1660601b81526014019250505060405160208183030381529060405280519060200120905092915050565b6008818154811062001d2157fe5b906000526020600020016000915054906101000a900473ffffffffffffffffffffffffffffffffffffffff1681565b60008060008084815260200190815260200160002054119050919050565b60026020528060005260406000206000915090505481565b6000600d60008373ffffffffffffffffffffffffffffffffffffffff1673ffffffffffffffffffffffffffffffffffffffff168152602001908152602001600020549050919050565b600062001df484848462001de38962002f80565b62003188909392919063ffffffff16565b73ffffffffffffffffffffffffffffffffffffffff168673ffffffffffffffffffffffffffffffffffffffff1614905095945050505050565b600f60009054906101000a900473ffffffffffffffffffffffffffffffffffffffff1681565b600b8054600181600116156101000203166002900480601f01602080910402602001604051908101604052809291908181526020018280546001816001161561010002031660029004801562001eed5780601f1062001ec15761010080835404028352916020019162001eed565b820191906000526020600020905b81548152906001019060200180831162001ecf57829003601f168201915b505050505081565b6006818051602081018201805184825260208301602085012081835280955050505050506000915054906101000a900473ffffffffffffffffffffffffffffffffffffffff1681565b60008073ffffffffffffffffffffffffffffffffffffffff16600f60009054906101000a900473ffffffffffffffffffffffffffffffffffffffff1673ffffffffffffffffffffffffffffffffffffffff16148062001fea57503373ffffffffffffffffffffffffffffffffffffffff16600f60009054906101000a900473ffffffffffffffffffffffffffffffffffffffff1673ffffffffffffffffffffffffffffffffffffffff16145b62001ff157fe5b600073ffffffffffffffffffffffffffffffffffffffff168273ffffffffffffffffffffffffffffffffffffffff1614156200202957fe5b81600e60006101000a81548173ffffffffffffffffffffffffffffffffffffffff021916908373ffffffffffffffffffffffffffffffffffffffff1602179055508173ffffffffffffffffffffffffffffffffffffffff167f6768ecc4502721534959d1b99640aad4829d2ac886647e4c55ea5eb6b6a181af60405160405180910390a260019050919050565b60008460001515620020c88262001d50565b151514620020d257fe5b600460009054906101000a900473ffffffffffffffffffffffffffffffffffffffff168686868662002108858585858562001dcf565b6200210f57fe5b6200211d8e338f8f620022b7565b8b146200212657fe5b62002157600460009054906101000a900473ffffffffffffffffffffffffffffffffffffffff168c8c8c8c62001dcf565b6200215e57fe5b8d73ffffffffffffffffffffffffffffffffffffffff166340c10f19338f6040518363ffffffff1660e01b8152600401808373ffffffffffffffffffffffffffffffffffffffff1673ffffffffffffffffffffffffffffffffffffffff16815260200182815260200192505050602060405180830381600087803b158015620021e657600080fd5b505af1158015620021fb573d6000803e3d6000fd5b505050506040513d60208110156200221257600080fd5b81019080805190602001909291905050506200222a57fe5b620022358b6200316e565b3373ffffffffffffffffffffffffffffffffffffffff168e73ffffffffffffffffffffffffffffffffffffffff167f692b6d6e8b9cda6d9a5aabac3677faeb10ae6f6a0090e5e7adf420efe94993b58f8e604051808381526020018281526020019250505060405180910390a360019650505050505050979650505050505050565b60008484848460405160200180807f4d494e54000000000000000000000000000000000000000000000000000000008152506004018573ffffffffffffffffffffffffffffffffffffffff1673ffffffffffffffffffffffffffffffffffffffff1660601b81526014018473ffffffffffffffffffffffffffffffffffffffff1673ffffffffffffffffffffffffffffffffffffffff1660601b8152601401838152602001828152602001945050505050604051602081830303815290604052805190602001209050949350505050565b60003373ffffffffffffffffffffffffffffffffffffffff16600f60009054906101000a900473ffffffffffffffffffffffffffffffffffffffff1673ffffffffffffffffffffffffffffffffffffffff16141562002433576040517f08c379a0000000000000000000000000000000000000000000000000000000008152600401808060200182810382526025815260200180620051656025913960400191505060405180910390fd5b60006200244083620031fc565b9050600081116200249d576040517f08c379a000000000000000000000000000000000000000000000000000000000815260040180806020018281038252603d81526020018062005256603d913960400191505060405180910390fd5b80600e60009054906101000a900473ffffffffffffffffffffffffffffffffffffffff1673ffffffffffffffffffffffffffffffffffffffff1663dd62ed3e33306040518363ffffffff1660e01b8152600401808373ffffffffffffffffffffffffffffffffffffffff1673ffffffffffffffffffffffffffffffffffffffff1681526020018273ffffffffffffffffffffffffffffffffffffffff1673ffffffffffffffffffffffffffffffffffffffff1681526020019250505060206040518083038186803b1580156200257257600080fd5b505afa15801562002587573d6000803e3d6000fd5b505050506040513d60208110156200259e57600080fd5b8101908080519060200190929190505050101562002608576040517f08c379a0000000000000000000000000000000000000000000000000000000008152600401808060200182810382526037815260200180620051b86037913960400191505060405180910390fd5b80600e60009054906101000a900473ffffffffffffffffffffffffffffffffffffffff1673ffffffffffffffffffffffffffffffffffffffff166370a08231336040518263ffffffff1660e01b8152600401808273ffffffffffffffffffffffffffffffffffffffff1673ffffffffffffffffffffffffffffffffffffffff16815260200191505060206040518083038186803b158015620026a957600080fd5b505afa158015620026be573d6000803e3d6000fd5b505050506040513d6020811015620026d557600080fd5b810190808051906020019092919050505010156200273f576040517f08c379a0000000000000000000000000000000000000000000000000000000008152600401808060200182810382526038815260200180620051ef6038913960400191505060405180910390fd5b6000600e60009054906101000a900473ffffffffffffffffffffffffffffffffffffffff1673ffffffffffffffffffffffffffffffffffffffff166370a08231336040518263ffffffff1660e01b8152600401808273ffffffffffffffffffffffffffffffffffffffff1673ffffffffffffffffffffffffffffffffffffffff16815260200191505060206040518083038186803b158015620027e157600080fd5b505afa158015620027f6573d6000803e3d6000fd5b505050506040513d60208110156200280d57600080fd5b81019080805190602001909291905050501162002876576040517f08c379a0000000000000000000000000000000000000000000000000000000008152600401808060200182810382526023815260200180620052936023913960400191505060405180910390fd5b600e60009054906101000a900473ffffffffffffffffffffffffffffffffffffffff1673ffffffffffffffffffffffffffffffffffffffff166323b872dd3330846040518463ffffffff1660e01b8152600401808473ffffffffffffffffffffffffffffffffffffffff1673ffffffffffffffffffffffffffffffffffffffff1681526020018373ffffffffffffffffffffffffffffffffffffffff1673ffffffffffffffffffffffffffffffffffffffff1681526020018281526020019350505050602060405180830381600087803b1580156200295457600080fd5b505af115801562002969573d6000803e3d6000fd5b505050506040513d60208110156200298057600080fd5b810190808051906020019092919050505062002a04576040517f08c379a00000000000000000000000000000000000000000000000000000000081526004018080602001828103825260198152602001807f323130303a20444149207472616e73666572206661696c65640000000000000081525060200191505060405180910390fd5b62002a5881600d60003373ffffffffffffffffffffffffffffffffffffffff1673ffffffffffffffffffffffffffffffffffffffff168152602001908152602001600020546200323090919063ffffffff16565b600d60003373ffffffffffffffffffffffffffffffffffffffff1673ffffffffffffffffffffffffffffffffffffffff168152602001908152602001600020819055503373ffffffffffffffffffffffffffffffffffffffff167f90890809c654f11d6e72a28fa60149770a0d11ec6c92319d6ceb2bb0a4ea1a1582600d60003373ffffffffffffffffffffffffffffffffffffffff1673ffffffffffffffffffffffffffffffffffffffff16815260200190815260200160002054604051808381526020018281526020019250505060405180910390a26001915050919050565b60006020528060005260406000206000915090505481565b60008073ffffffffffffffffffffffffffffffffffffffff16600360008473ffffffffffffffffffffffffffffffffffffffff1673ffffffffffffffffffffffffffffffffffffffff16815260200190815260200160002060009054906101000a900473ffffffffffffffffffffffffffffffffffffffff1673ffffffffffffffffffffffffffffffffffffffff1614159050919050565b6000600880549050905090565b600e60009054906101000a900473ffffffffffffffffffffffffffffffffffffffff1681565b6000846000151562002c2f8262001d50565b15151462002c3957fe5b600560009054906101000a900473ffffffffffffffffffffffffffffffffffffffff168686868662002c6f858585858562001dcf565b62002c7657fe5b62002c818c620018df565b8b1462002c8a57fe5b62002cbb600560009054906101000a900473ffffffffffffffffffffffffffffffffffffffff168c8c8c8c62001dcf565b62002cc257fe5b60008c8d60405162002cd49062003345565b808060200180602001838103835285818151815260200191508051906020019080838360005b8381101562002d1757808201518184015260208101905062002cfa565b50505050905090810190601f16801562002d455780820380516001836020036101000a031916815260200191505b50838103825284818151815260200191508051906020019080838360005b8381101562002d8057808201518184015260208101905062002d63565b50505050905090810190601f16801562002dae5780820380516001836020036101000a031916815260200191505b50945050505050604051809103906000f08015801562002dd2573d6000803e3d6000fd5b5090508060068e6040518082805190602001908083835b6020831062002e0e578051825260208201915060208101905060208303925062002de9565b6001836020036101000a038019825116818451168082178552505050505050905001915050908152602001604051809103902060006101000a81548173ffffffffffffffffffffffffffffffffffffffff021916908373ffffffffffffffffffffffffffffffffffffffff1602179055508c600760008373ffffffffffffffffffffffffffffffffffffffff1673ffffffffffffffffffffffffffffffffffffffff168152602001908152602001600020908051906020019062002ed492919062003353565b5060088190806001815401808255809150509060018203906000526020600020016000909192909190916101000a81548173ffffffffffffffffffffffffffffffffffffffff021916908373ffffffffffffffffffffffffffffffffffffffff1602179055505062002f468c6200316e565b600197505050505050505095945050505050565b600160009054906101000a900473ffffffffffffffffffffffffffffffffffffffff1681565b60008160405160200180807f19457468657265756d205369676e6564204d6573736167653a0a333200000000815250601c01828152602001915050604051602081830303815290604052805190602001209050919050565b6000604182511462002fee5760009050620030de565b60008060006020850151925060408501519150606085015160001a90507f7fffffffffffffffffffffffffffffff5d576e7357a4501ddfe92f46681b20a08260001c1115620030445760009350505050620030de565b601b8160ff16141580156200305d5750601c8160ff1614155b15620030705760009350505050620030de565b60018682858560405160008152602001604052604051808581526020018460ff1660ff1681526020018381526020018281526020019450505050506020604051602081039080840390855afa158015620030ce573d6000803e3d6000fd5b5050506020604051035193505050505b92915050565b6000828211156200315d576040517f08c379a000000000000000000000000000000000000000000000000000000000815260040180806020018281038252601e8152602001807f536166654d6174683a207375627472616374696f6e206f766572666c6f77000081525060200191505060405180910390fd5b600082840390508091505092915050565b436000808381526020019081526020016000208190555050565b600060018585858560405160008152602001604052604051808581526020018460ff1660ff1681526020018381526020018281526020019450505050506020604051602081039080840390855afa158015620031e8573d6000803e3d6000fd5b505050602060405103519050949350505050565b6000620032296200321960095484620032b990919063ffffffff16565b83620030e490919063ffffffff16565b9050919050565b600080828401905083811015620032af576040517f08c379a000000000000000000000000000000000000000000000000000000000815260040180806020018281038252601b8152602001807f536166654d6174683a206164646974696f6e206f766572666c6f77000000000081525060200191505060405180910390fd5b8091505092915050565b60008082141562003332576040517f08c379a00000000000000000000000000000000000000000000000000000000081526004018080602001828103825260188152602001807f536166654d6174683a206d6f64756c6f206279207a65726f000000000000000081525060200191505060405180910390fd5b8183816200333c57fe5b06905092915050565b611d62806200340383390190565b828054600181600116156101000203166002900490600052602060002090601f016020900481019282601f106200339657805160ff1916838001178555620033c7565b82800160010185558215620033c7579182015b82811115620033c6578251825591602001919060010190620033a9565b5b509050620033d69190620033da565b5090565b620033ff91905b80821115620033fb576000816000905550600101620033e1565b5090565b9056fe60806040526012600860006101000a81548160ff021916908360ff1602179055506871d75ab9b920500000600a553480156200003a57600080fd5b5060405162001d6238038062001d62833981810160405260408110156200006057600080fd5b8101908080516401000000008111156200007957600080fd5b828101905060208101848111156200009057600080fd5b8151856001820283011164010000000082111715620000ae57600080fd5b50509291906020018051640100000000811115620000cb57600080fd5b82810190506020810184811115620000e257600080fd5b81518560018202830111640100000000821117156200010057600080fd5b5050929190505050600073ffffffffffffffffffffffffffffffffffffffff16600560009054906101000a900473ffffffffffffffffffffffffffffffffffffffff1673ffffffffffffffffffffffffffffffffffffffff16146200016157fe5b62000172336200019f60201b60201c565b5062000184826200029c60201b60201c565b5062000196816200037160201b60201c565b505050620004f5565b60008073ffffffffffffffffffffffffffffffffffffffff16600560009054906101000a900473ffffffffffffffffffffffffffffffffffffffff1673ffffffffffffffffffffffffffffffffffffffff1614806200024b57503373ffffffffffffffffffffffffffffffffffffffff16600560009054906101000a900473ffffffffffffffffffffffffffffffffffffffff1673ffffffffffffffffffffffffffffffffffffffff16145b6200025257fe5b81600560006101000a81548173ffffffffffffffffffffffffffffffffffffffff021916908373ffffffffffffffffffffffffffffffffffffffff16021790555060019050919050565b60008073ffffffffffffffffffffffffffffffffffffffff16600560009054906101000a900473ffffffffffffffffffffffffffffffffffffffff1673ffffffffffffffffffffffffffffffffffffffff1614806200034857503373ffffffffffffffffffffffffffffffffffffffff16600560009054906101000a900473ffffffffffffffffffffffffffffffffffffffff1673ffffffffffffffffffffffffffffffffffffffff16145b6200034f57fe5b81600690805190602001906200036792919062000446565b5060019050919050565b60008073ffffffffffffffffffffffffffffffffffffffff16600560009054906101000a900473ffffffffffffffffffffffffffffffffffffffff1673ffffffffffffffffffffffffffffffffffffffff1614806200041d57503373ffffffffffffffffffffffffffffffffffffffff16600560009054906101000a900473ffffffffffffffffffffffffffffffffffffffff1673ffffffffffffffffffffffffffffffffffffffff16145b6200042457fe5b81600790805190602001906200043c92919062000446565b5060019050919050565b828054600181600116156101000203166002900490600052602060002090601f016020900481019282601f106200048957805160ff1916838001178555620004ba565b82800160010185558215620004ba579182015b82811115620004b95782518255916020019190600101906200049c565b5b509050620004c99190620004cd565b5090565b620004f291905b80821115620004ee576000816000905550600101620004d4565b5090565b90565b61185d80620005056000396000f3fe608060405234801561001057600080fd5b50600436106101005760003560e01c806370a0823111610097578063b84c824611610066578063b84c82461461054b578063c47f00271461061e578063d5abeb01146106f1578063dd62ed3e1461070f57610100565b806370a08231146103dd5780638da5cb5b14610435578063a457c2d71461047f578063a9059cbb146104e557610100565b80632b321194116100d35780632b3211941461026b57806339509351146102c757806340c10f191461032d578063674ddb531461039357610100565b8063095ea7b31461010557806313af40351461016b57806318160ddd146101c757806323b872dd146101e5575b600080fd5b6101516004803603604081101561011b57600080fd5b81019080803573ffffffffffffffffffffffffffffffffffffffff16906020019092919080359060200190929190505050610787565b604051808215151515815260200191505060405180910390f35b6101ad6004803603602081101561018157600080fd5b81019080803573ffffffffffffffffffffffffffffffffffffffff16906020019092919050505061079e565b604051808215151515815260200191505060405180910390f35b6101cf610899565b6040518082815260200191505060405180910390f35b610251600480360360608110156101fb57600080fd5b81019080803573ffffffffffffffffffffffffffffffffffffffff169060200190929190803573ffffffffffffffffffffffffffffffffffffffff169060200190929190803590602001909291905050506108a3565b604051808215151515815260200191505060405180910390f35b6102ad6004803603602081101561028157600080fd5b81019080803573ffffffffffffffffffffffffffffffffffffffff169060200190929190505050610954565b604051808215151515815260200191505060405180910390f35b610313600480360360408110156102dd57600080fd5b81019080803573ffffffffffffffffffffffffffffffffffffffff16906020019092919080359060200190929190505050610aa7565b604051808215151515815260200191505060405180910390f35b6103796004803603604081101561034357600080fd5b81019080803573ffffffffffffffffffffffffffffffffffffffff16906020019092919080359060200190929190505050610b4c565b604051808215151515815260200191505060405180910390f35b61039b610dce565b604051808273ffffffffffffffffffffffffffffffffffffffff1673ffffffffffffffffffffffffffffffffffffffff16815260200191505060405180910390f35b61041f600480360360208110156103f357600080fd5b81019080803573ffffffffffffffffffffffffffffffffffffffff169060200190929190505050610df4565b6040518082815260200191505060405180910390f35b61043d610e3c565b604051808273ffffffffffffffffffffffffffffffffffffffff1673ffffffffffffffffffffffffffffffffffffffff16815260200191505060405180910390f35b6104cb6004803603604081101561049557600080fd5b81019080803573ffffffffffffffffffffffffffffffffffffffff16906020019092919080359060200190929190505050610e66565b604051808215151515815260200191505060405180910390f35b610531600480360360408110156104fb57600080fd5b81019080803573ffffffffffffffffffffffffffffffffffffffff16906020019092919080359060200190929190505050610f0b565b604051808215151515815260200191505060405180910390f35b6106046004803603602081101561056157600080fd5b810190808035906020019064010000000081111561057e57600080fd5b82018360208201111561059057600080fd5b803590602001918460018302840111640100000000831117156105b257600080fd5b91908080601f016020809104026020016040519081016040528093929190818152602001838380828437600081840152601f19601f820116905080830192505050505050509192919290505050610f22565b604051808215151515815260200191505060405180910390f35b6106d76004803603602081101561063457600080fd5b810190808035906020019064010000000081111561065157600080fd5b82018360208201111561066357600080fd5b8035906020019184600183028401116401000000008311171561068557600080fd5b91908080601f016020809104026020016040519081016040528093929190818152602001838380828437600081840152601f19601f820116905080830192505050505050509192919290505050610ff3565b604051808215151515815260200191505060405180910390f35b6106f96110c4565b6040518082815260200191505060405180910390f35b6107716004803603604081101561072557600080fd5b81019080803573ffffffffffffffffffffffffffffffffffffffff169060200190929190803573ffffffffffffffffffffffffffffffffffffffff1690602001909291905050506110ca565b6040518082815260200191505060405180910390f35b6000610794338484611151565b6001905092915050565b60008073ffffffffffffffffffffffffffffffffffffffff16600560009054906101000a900473ffffffffffffffffffffffffffffffffffffffff1673ffffffffffffffffffffffffffffffffffffffff16148061084957503373ffffffffffffffffffffffffffffffffffffffff16600560009054906101000a900473ffffffffffffffffffffffffffffffffffffffff1673ffffffffffffffffffffffffffffffffffffffff16145b61084f57fe5b81600560006101000a81548173ffffffffffffffffffffffffffffffffffffffff021916908373ffffffffffffffffffffffffffffffffffffffff16021790555060019050919050565b6000600254905090565b60006108b0848484611348565b610949843361094485600160008a73ffffffffffffffffffffffffffffffffffffffff1673ffffffffffffffffffffffffffffffffffffffff16815260200190815260200160002060003373ffffffffffffffffffffffffffffffffffffffff1673ffffffffffffffffffffffffffffffffffffffff168152602001908152602001600020546115e490919063ffffffff16565b611151565b600190509392505050565b60008073ffffffffffffffffffffffffffffffffffffffff16600560009054906101000a900473ffffffffffffffffffffffffffffffffffffffff1673ffffffffffffffffffffffffffffffffffffffff1614806109ff57503373ffffffffffffffffffffffffffffffffffffffff16600560009054906101000a900473ffffffffffffffffffffffffffffffffffffffff1673ffffffffffffffffffffffffffffffffffffffff16145b610a0557fe5b600073ffffffffffffffffffffffffffffffffffffffff16600460009054906101000a900473ffffffffffffffffffffffffffffffffffffffff1673ffffffffffffffffffffffffffffffffffffffff1614610a5d57fe5b81600460006101000a81548173ffffffffffffffffffffffffffffffffffffffff021916908373ffffffffffffffffffffffffffffffffffffffff16021790555060019050919050565b6000610b423384610b3d85600160003373ffffffffffffffffffffffffffffffffffffffff1673ffffffffffffffffffffffffffffffffffffffff16815260200190815260200160002060008973ffffffffffffffffffffffffffffffffffffffff1673ffffffffffffffffffffffffffffffffffffffff1681526020019081526020016000205461166d90919063ffffffff16565b611151565b6001905092915050565b60008073ffffffffffffffffffffffffffffffffffffffff16600560009054906101000a900473ffffffffffffffffffffffffffffffffffffffff1673ffffffffffffffffffffffffffffffffffffffff161480610bf757503373ffffffffffffffffffffffffffffffffffffffff16600560009054906101000a900473ffffffffffffffffffffffffffffffffffffffff1673ffffffffffffffffffffffffffffffffffffffff16145b610bfd57fe5b600073ffffffffffffffffffffffffffffffffffffffff168373ffffffffffffffffffffffffffffffffffffffff161415610ca0576040517f08c379a000000000000000000000000000000000000000000000000000000000815260040180806020018281038252601f8152602001807f45524332303a206d696e7420746f20746865207a65726f20616464726573730081525060200191505060405180910390fd5b6000610cb78360095461166d90919063ffffffff16565b9050600a54811115610cc557fe5b80600981905550610d1e83600360008773ffffffffffffffffffffffffffffffffffffffff1673ffffffffffffffffffffffffffffffffffffffff1681526020019081526020016000205461166d90919063ffffffff16565b600360008673ffffffffffffffffffffffffffffffffffffffff1673ffffffffffffffffffffffffffffffffffffffff168152602001908152602001600020819055508373ffffffffffffffffffffffffffffffffffffffff16600073ffffffffffffffffffffffffffffffffffffffff167fddf252ad1be2c89b69c2b068fc378daa952ba7f163c4a11628f55a4df523b3ef856040518082815260200191505060405180910390a35092915050565b600460009054906101000a900473ffffffffffffffffffffffffffffffffffffffff1681565b60008060008373ffffffffffffffffffffffffffffffffffffffff1673ffffffffffffffffffffffffffffffffffffffff168152602001908152602001600020549050919050565b6000600560009054906101000a900473ffffffffffffffffffffffffffffffffffffffff16905090565b6000610f013384610efc85600160003373ffffffffffffffffffffffffffffffffffffffff1673ffffffffffffffffffffffffffffffffffffffff16815260200190815260200160002060008973ffffffffffffffffffffffffffffffffffffffff1673ffffffffffffffffffffffffffffffffffffffff168152602001908152602001600020546115e490919063ffffffff16565b611151565b6001905092915050565b6000610f18338484611348565b6001905092915050565b60008073ffffffffffffffffffffffffffffffffffffffff16600560009054906101000a900473ffffffffffffffffffffffffffffffffffffffff1673ffffffffffffffffffffffffffffffffffffffff161480610fcd57503373ffffffffffffffffffffffffffffffffffffffff16600560009054906101000a900473ffffffffffffffffffffffffffffffffffffffff1673ffffffffffffffffffffffffffffffffffffffff16145b610fd357fe5b8160079080519060200190610fe99291906116f5565b5060019050919050565b60008073ffffffffffffffffffffffffffffffffffffffff16600560009054906101000a900473ffffffffffffffffffffffffffffffffffffffff1673ffffffffffffffffffffffffffffffffffffffff16148061109e57503373ffffffffffffffffffffffffffffffffffffffff16600560009054906101000a900473ffffffffffffffffffffffffffffffffffffffff1673ffffffffffffffffffffffffffffffffffffffff16145b6110a457fe5b81600690805190602001906110ba9291906116f5565b5060019050919050565b600a5481565b6000600160008473ffffffffffffffffffffffffffffffffffffffff1673ffffffffffffffffffffffffffffffffffffffff16815260200190815260200160002060008373ffffffffffffffffffffffffffffffffffffffff1673ffffffffffffffffffffffffffffffffffffffff16815260200190815260200160002054905092915050565b600073ffffffffffffffffffffffffffffffffffffffff168373ffffffffffffffffffffffffffffffffffffffff1614156111d7576040517f08c379a00000000000000000000000000000000000000000000000000000000081526004018080602001828103825260248152602001806118056024913960400191505060405180910390fd5b600073ffffffffffffffffffffffffffffffffffffffff168273ffffffffffffffffffffffffffffffffffffffff16141561125d576040517f08c379a00000000000000000000000000000000000000000000000000000000081526004018080602001828103825260228152602001806117be6022913960400191505060405180910390fd5b80600160008573ffffffffffffffffffffffffffffffffffffffff1673ffffffffffffffffffffffffffffffffffffffff16815260200190815260200160002060008473ffffffffffffffffffffffffffffffffffffffff1673ffffffffffffffffffffffffffffffffffffffff168152602001908152602001600020819055508173ffffffffffffffffffffffffffffffffffffffff168373ffffffffffffffffffffffffffffffffffffffff167f8c5be1e5ebec7d5bd14f71427d1e84f3dd0314c0f7b2291e5b200ac8c7c3b925836040518082815260200191505060405180910390a3505050565b600073ffffffffffffffffffffffffffffffffffffffff168373ffffffffffffffffffffffffffffffffffffffff1614156113ce576040517f08c379a00000000000000000000000000000000000000000000000000000000081526004018080602001828103825260258152602001806117e06025913960400191505060405180910390fd5b600073ffffffffffffffffffffffffffffffffffffffff168273ffffffffffffffffffffffffffffffffffffffff161415611454576040517f08c379a000000000000000000000000000000000000000000000000000000000815260040180806020018281038252602381526020018061179b6023913960400191505060405180910390fd5b6114a5816000808673ffffffffffffffffffffffffffffffffffffffff1673ffffffffffffffffffffffffffffffffffffffff168152602001908152602001600020546115e490919063ffffffff16565b6000808573ffffffffffffffffffffffffffffffffffffffff1673ffffffffffffffffffffffffffffffffffffffff16815260200190815260200160002081905550611538816000808573ffffffffffffffffffffffffffffffffffffffff1673ffffffffffffffffffffffffffffffffffffffff1681526020019081526020016000205461166d90919063ffffffff16565b6000808473ffffffffffffffffffffffffffffffffffffffff1673ffffffffffffffffffffffffffffffffffffffff168152602001908152602001600020819055508173ffffffffffffffffffffffffffffffffffffffff168373ffffffffffffffffffffffffffffffffffffffff167fddf252ad1be2c89b69c2b068fc378daa952ba7f163c4a11628f55a4df523b3ef836040518082815260200191505060405180910390a3505050565b60008282111561165c576040517f08c379a000000000000000000000000000000000000000000000000000000000815260040180806020018281038252601e8152602001807f536166654d6174683a207375627472616374696f6e206f766572666c6f77000081525060200191505060405180910390fd5b600082840390508091505092915050565b6000808284019050838110156116eb576040517f08c379a000000000000000000000000000000000000000000000000000000000815260040180806020018281038252601b8152602001807f536166654d6174683a206164646974696f6e206f766572666c6f77000000000081525060200191505060405180910390fd5b8091505092915050565b828054600181600116156101000203166002900490600052602060002090601f016020900481019282601f1061173657805160ff1916838001178555611764565b82800160010185558215611764579182015b82811115611763578251825591602001919060010190611748565b5b5090506117719190611775565b5090565b61179791905b8082111561179357600081600090555060010161177b565b5090565b9056fe45524332303a207472616e7366657220746f20746865207a65726f206164647265737345524332303a20617070726f766520746f20746865207a65726f206164647265737345524332303a207472616e736665722066726f6d20746865207a65726f206164647265737345524332303a20617070726f76652066726f6d20746865207a65726f2061646472657373a265627a7a72305820c602c2af8f08c1e5100332fa0df22ef3390ca4fb57bfc39419660e5185d90efd64736f6c634300050a0032323130303a204f776e65722063616e6e6f742063616c6c20746869732066756e6374696f6e323130303a2053656e6465722068617320696e737566666963656e742066756e647320746f207769746864726177323130303a20436f6e74726f6c6c657220646f6573206e6f74206861766520656e6f75676820616c6c6f77616e6365206772616e746564323130303a2053656e64657220646f6573206e6f7420686176652073756666696369656e742062616c616e636520746f206465706f736974323130303a205472616e736665722066726f6d20436f6e74726f6c6c657220746f2053656e646572206661696c6564323130303a20416d6f756e7420746f6f20736d616c6c20746f206465706f7369743b205265717569726573206174206c6561737420302e303120444149323130303a2053656e6465722062616c616e63652063616e6e6f74206265207a65726f323130303a20436f6e74726f6c6c65722068617320696e737566666963656e742066756e647320746f207769746864726177a265627a7a723058203225fadcbc921dba33606f1382c701206ba1807343aa499f5e040fb17bbf370064736f6c634300050a0032",
  "source": "pragma solidity ^0.5.10;\n\nimport \"./libraries/SafeMath.sol\";\nimport \"./classes/ERC20.sol\";\nimport \"./classes/Claimer.sol\";\nimport \"./classes/Minter.sol\";\nimport \"./classes/Creator.sol\";\n\ncontract Controller is Claimer, Minter, Creator {\n    using SafeMath for uint256;\n\n    uint256 public minDeposit = 10 ** 16; // 0.01 DAI\n    string public name = \"2100 Locked DAI\";\n    string public symbol = \"2100DAI\";\n    uint8 public decimals = 18;\n\n    event Deposit(address indexed account, uint256 amount, uint256 balance);\n    event Withdraw(address indexed account, uint256 amount, uint256 balance);\n    event Owner(address indexed owner);\n    event DAIAddress(address indexed daiAddress);\n\n    mapping(address => uint256) private _balances;\n\n    ERC20 public DAI;\n\n    address public owner;\n\n    modifier onlyOwner() {\n        assert(owner == address(0) || owner == msg.sender);\n        _;\n    }\n\n    modifier notOwner() {\n        require(owner != msg.sender, \"2100: Owner cannot call this function\");\n        _;\n    }\n\n    constructor(address daiAddress) public {\n        setOwner(msg.sender);\n        setDaiAddress(daiAddress);\n    }\n\n    function setOwner(address _address) public onlyOwner returns (bool) {\n        owner = _address;\n        emit Owner(_address);\n        return true;\n    }\n\n    function setDaiAddress(address daiAddress) public onlyOwner returns (bool) {\n        assert(daiAddress != address(0));\n        DAI = ERC20(daiAddress);\n        emit DAIAddress(daiAddress);\n        return true;\n    }\n\n    function deposit(uint256 _amount) public notOwner returns (bool) {\n        uint256 amount = floor(_amount); // cut of greater than 2 decimal places\n\n        require(\n            amount > 0,\n            \"2100: Amount too small to deposit; Requires at least 0.01 DAI\"\n        );\n        require(\n            DAI.allowance(msg.sender, address(this)) >= amount,\n            \"2100: Controller does not have enough allowance granted\"\n        );\n        require(\n            DAI.balanceOf(msg.sender) >= amount,\n            \"2100: Sender does not have sufficient balance to deposit\"\n        );\n        require(\n            DAI.balanceOf(msg.sender) > 0,\n            \"2100: Sender balance cannot be zero\"\n        );\n\n        require(\n            DAI.transferFrom(msg.sender, address(this), amount),\n            \"2100: DAI transfer failed\"\n        );\n\n        _balances[msg.sender] = _balances[msg.sender].add(amount);\n        emit Deposit(msg.sender, amount, _balances[msg.sender]);\n        return true;\n    }\n\n    function withdraw(uint256 amount) public notOwner returns (bool) {\n        require(\n            _balances[msg.sender] >= amount,\n            \"2100: Sender has insufficent funds to withdraw\"\n        );\n        require(\n            DAI.balanceOf(address(this)) >= amount,\n            \"2100: Controller has insufficent funds to withdraw\"\n        );\n\n        require(\n            DAI.transfer(msg.sender, amount),\n            \"2100: Transfer from Controller to Sender failed\"\n        );\n\n        _balances[msg.sender] = _balances[msg.sender].sub(amount);\n        emit Withdraw(msg.sender, amount, _balances[msg.sender]);\n        return true;\n    }\n\n    function balanceOf(address account) public view returns (uint256) {\n        return _balances[account];\n    }\n\n    function totalSupply() public view returns (uint256) {\n        return DAI.balanceOf(address(this));\n    }\n\n    function floor(uint256 amount) internal view returns (uint256) {\n        return amount.sub(amount.mod(minDeposit));\n    }\n\n}\n",
  "sourcePath": "/usr/src/app/contracts/Controller.sol",
  "compiler": {
    "name": "solc",
    "version": "0.5.10+commit.5a6ea5b1.Emscripten.clang"
  },
  "schemaVersion": "3.0.11",
  "updatedAt": "2019-07-18T15:12:44.543Z",
  "devdoc": {
    "methods": {}
  },
  "userdoc": {
    "methods": {}
  }
}