{
  "contractName": "Creator",
  "abi": [
    {
      "constant": true,
      "inputs": [
        {
          "name": "",
          "type": "address"
        }
      ],
      "name": "tokenToSymbol",
      "outputs": [
        {
          "name": "",
          "type": "string"
        }
      ],
      "payable": false,
      "stateMutability": "view",
      "type": "function"
    },
    {
      "constant": true,
      "inputs": [
        {
          "name": "signer",
          "type": "address"
        },
        {
          "name": "hash",
          "type": "bytes32"
        },
        {
          "name": "signature",
          "type": "bytes"
        }
      ],
      "name": "isValidSignature",
      "outputs": [
        {
          "name": "_valid",
          "type": "bool"
        }
      ],
      "payable": false,
      "stateMutability": "pure",
      "type": "function"
    },
    {
      "constant": true,
      "inputs": [
        {
          "name": "",
          "type": "uint256"
        }
      ],
      "name": "tokens",
      "outputs": [
        {
          "name": "",
          "type": "address"
        }
      ],
      "payable": false,
      "stateMutability": "view",
      "type": "function"
    },
    {
      "constant": true,
      "inputs": [
        {
          "name": "messageId",
          "type": "bytes32"
        }
      ],
      "name": "seenMessage",
      "outputs": [
        {
          "name": "_seen",
          "type": "bool"
        }
      ],
      "payable": false,
      "stateMutability": "view",
      "type": "function"
    },
    {
      "constant": true,
      "inputs": [
        {
          "name": "signer",
          "type": "address"
        },
        {
          "name": "hash",
          "type": "bytes32"
        },
        {
          "name": "v",
          "type": "uint8"
        },
        {
          "name": "r",
          "type": "bytes32"
        },
        {
          "name": "s",
          "type": "bytes32"
        }
      ],
      "name": "isValidSignature",
      "outputs": [
        {
          "name": "_valid",
          "type": "bool"
        }
      ],
      "payable": false,
      "stateMutability": "pure",
      "type": "function"
    },
    {
      "constant": true,
      "inputs": [],
      "name": "owner",
      "outputs": [
        {
          "name": "",
          "type": "address"
        }
      ],
      "payable": false,
      "stateMutability": "view",
      "type": "function"
    },
    {
      "constant": true,
      "inputs": [
        {
          "name": "",
          "type": "string"
        }
      ],
      "name": "symbolToToken",
      "outputs": [
        {
          "name": "",
          "type": "address"
        }
      ],
      "payable": false,
      "stateMutability": "view",
      "type": "function"
    },
    {
      "constant": true,
      "inputs": [
        {
          "name": "",
          "type": "bytes32"
        }
      ],
      "name": "messageIdToBlockNumber",
      "outputs": [
        {
          "name": "",
          "type": "uint256"
        }
      ],
      "payable": false,
      "stateMutability": "view",
      "type": "function"
    },
    {
      "anonymous": false,
      "inputs": [
        {
          "indexed": true,
          "name": "symbol",
          "type": "string"
        },
        {
          "indexed": true,
          "name": "token",
          "type": "address"
        },
        {
          "indexed": false,
          "name": "creator",
          "type": "address"
        }
      ],
      "name": "Create",
      "type": "event"
    },
    {
      "constant": false,
      "inputs": [
        {
          "name": "symbol",
          "type": "string"
        },
        {
          "name": "hash",
          "type": "bytes32"
        },
        {
          "name": "v",
          "type": "uint8"
        },
        {
          "name": "r",
          "type": "bytes32"
        },
        {
          "name": "s",
          "type": "bytes32"
        }
      ],
      "name": "create",
      "outputs": [
        {
          "name": "",
          "type": "bool"
        }
      ],
      "payable": false,
      "stateMutability": "nonpayable",
      "type": "function"
    },
    {
      "constant": true,
      "inputs": [],
      "name": "tokenLength",
      "outputs": [
        {
          "name": "",
          "type": "uint256"
        }
      ],
      "payable": false,
      "stateMutability": "view",
      "type": "function"
    },
    {
      "constant": true,
      "inputs": [
        {
          "name": "symbol",
          "type": "string"
        }
      ],
      "name": "getCreateHash",
      "outputs": [
        {
          "name": "_hash",
          "type": "bytes32"
        }
      ],
      "payable": false,
      "stateMutability": "pure",
      "type": "function"
    }
  ],
  "bytecode": "0x608060405234801561001057600080fd5b50612dd3806100206000396000f3fe60806040523480156200001157600080fd5b5060043610620000b85760003560e01c80638163681e116200007b5780638163681e14620004125780638da5cb5b146200049c578063a5bc29c214620004e8578063ba29ba4014620005e9578063de66341e146200062e578063e5aba6b5146200064e57620000b8565b80630ba3612114620000bd578063238a4d1e146200018057806339a395d614620002835780634f64b2be146200035857806358da3a8d14620003c9575b600080fd5b6200010260048036036020811015620000d557600080fd5b81019080803573ffffffffffffffffffffffffffffffffffffffff16906020019092919050505062000752565b6040518080602001828103825283818151815260200191508051906020019080838360005b838110156200014457808201518184015260208101905062000127565b50505050905090810190601f168015620001725780820380516001836020036101000a031916815260200191505b509250505060405180910390f35b62000269600480360360608110156200019857600080fd5b81019080803573ffffffffffffffffffffffffffffffffffffffff1690602001909291908035906020019092919080359060200190640100000000811115620001e057600080fd5b820183602082011115620001f357600080fd5b803590602001918460018302840111640100000000831117156200021657600080fd5b91908080601f016020809104026020016040519081016040528093929190818152602001838380828437600081840152601f19601f82011690508083019250505050505050919291929050505062000806565b604051808215151515815260200191505060405180910390f35b62000342600480360360208110156200029b57600080fd5b8101908080359060200190640100000000811115620002b957600080fd5b820183602082011115620002cc57600080fd5b80359060200191846001830284011164010000000083111715620002ef57600080fd5b91908080601f016020809104026020016040519081016040528093929190818152602001838380828437600081840152601f19601f8201169050808301925050505050505091929192905050506200085e565b6040518082815260200191505060405180910390f35b62000387600480360360208110156200037057600080fd5b810190808035906020019092919050505062000903565b604051808273ffffffffffffffffffffffffffffffffffffffff1673ffffffffffffffffffffffffffffffffffffffff16815260200191505060405180910390f35b620003f860048036036020811015620003e157600080fd5b810190808035906020019092919050505062000940565b604051808215151515815260200191505060405180910390f35b62000482600480360360a08110156200042a57600080fd5b81019080803573ffffffffffffffffffffffffffffffffffffffff16906020019092919080359060200190929190803560ff16906020019092919080359060200190929190803590602001909291905050506200095e565b604051808215151515815260200191505060405180910390f35b620004a6620009bc565b604051808273ffffffffffffffffffffffffffffffffffffffff1673ffffffffffffffffffffffffffffffffffffffff16815260200191505060405180910390f35b620005a7600480360360208110156200050057600080fd5b81019080803590602001906401000000008111156200051e57600080fd5b8201836020820111156200053157600080fd5b803590602001918460018302840111640100000000831117156200055457600080fd5b91908080601f016020809104026020016040519081016040528093929190818152602001838380828437600081840152601f19601f820116905080830192505050505050509192919290505050620009e2565b604051808273ffffffffffffffffffffffffffffffffffffffff1673ffffffffffffffffffffffffffffffffffffffff16815260200191505060405180910390f35b62000618600480360360208110156200060157600080fd5b810190808035906020019092919050505062000a2b565b6040518082815260200191505060405180910390f35b6200063862000a43565b6040518082815260200191505060405180910390f35b62000738600480360360a08110156200066657600080fd5b81019080803590602001906401000000008111156200068457600080fd5b8201836020820111156200069757600080fd5b80359060200191846001830284011164010000000083111715620006ba57600080fd5b91908080601f016020809104026020016040519081016040528093929190818152602001838380828437600081840152601f19601f82011690508083019250505050505050919291929080359060200190929190803560ff169060200190929190803590602001909291908035906020019092919050505062000a50565b604051808215151515815260200191505060405180910390f35b60036020528060005260406000206000915090508054600181600116156101000203166002900480601f016020809104026020016040519081016040528092919081815260200182805460018160011615610100020316600290048015620007fe5780601f10620007d257610100808354040283529160200191620007fe565b820191906000526020600020905b815481529060010190602001808311620007e057829003601f168201915b505050505081565b60006200082782620008188562000d8d565b62000de590919063ffffffff16565b73ffffffffffffffffffffffffffffffffffffffff168473ffffffffffffffffffffffffffffffffffffffff161490509392505050565b60008160405160200180807f435245415445000000000000000000000000000000000000000000000000000081525060060182805190602001908083835b60208310620008c157805182526020820191506020810190506020830392506200089c565b6001836020036101000a038019825116818451168082178552505050505050905001915050604051602081830303815290604052805190602001209050919050565b600481815481106200091157fe5b906000526020600020016000915054906101000a900473ffffffffffffffffffffffffffffffffffffffff1681565b60008060008084815260200190815260200160002054119050919050565b600062000983848484620009728962000d8d565b62000ef1909392919063ffffffff16565b73ffffffffffffffffffffffffffffffffffffffff168673ffffffffffffffffffffffffffffffffffffffff1614905095945050505050565b600160009054906101000a900473ffffffffffffffffffffffffffffffffffffffff1681565b6002818051602081018201805184825260208301602085012081835280955050505050506000915054906101000a900473ffffffffffffffffffffffffffffffffffffffff1681565b60006020528060005260406000206000915090505481565b6000600480549050905090565b6000846000151562000a628262000940565b15151462000a6c57fe5b600160009054906101000a900473ffffffffffffffffffffffffffffffffffffffff168686868662000aa285858585856200095e565b62000aa957fe5b62000ab48c6200085e565b8b1462000abd57fe5b62000aee600160009054906101000a900473ffffffffffffffffffffffffffffffffffffffff168c8c8c8c6200095e565b62000af557fe5b60008c8d60405162000b079062000f7f565b808060200180602001838103835285818151815260200191508051906020019080838360005b8381101562000b4a57808201518184015260208101905062000b2d565b50505050905090810190601f16801562000b785780820380516001836020036101000a031916815260200191505b50838103825284818151815260200191508051906020019080838360005b8381101562000bb357808201518184015260208101905062000b96565b50505050905090810190601f16801562000be15780820380516001836020036101000a031916815260200191505b50945050505050604051809103906000f08015801562000c05573d6000803e3d6000fd5b5090508060028e6040518082805190602001908083835b6020831062000c41578051825260208201915060208101905060208303925062000c1c565b6001836020036101000a038019825116818451168082178552505050505050905001915050908152602001604051809103902060006101000a81548173ffffffffffffffffffffffffffffffffffffffff021916908373ffffffffffffffffffffffffffffffffffffffff1602179055508c600360008373ffffffffffffffffffffffffffffffffffffffff1673ffffffffffffffffffffffffffffffffffffffff168152602001908152602001600020908051906020019062000d0792919062000f8d565b5060048190806001815401808255809150509060018203906000526020600020016000909192909190916101000a81548173ffffffffffffffffffffffffffffffffffffffff021916908373ffffffffffffffffffffffffffffffffffffffff1602179055505062000d798c62000f65565b600197505050505050505095945050505050565b60008160405160200180807f19457468657265756d205369676e6564204d6573736167653a0a333200000000815250601c01828152602001915050604051602081830303815290604052805190602001209050919050565b6000604182511462000dfb576000905062000eeb565b60008060006020850151925060408501519150606085015160001a90507f7fffffffffffffffffffffffffffffff5d576e7357a4501ddfe92f46681b20a08260001c111562000e51576000935050505062000eeb565b601b8160ff161415801562000e6a5750601c8160ff1614155b1562000e7d576000935050505062000eeb565b60018682858560405160008152602001604052604051808581526020018460ff1660ff1681526020018381526020018281526020019450505050506020604051602081039080840390855afa15801562000edb573d6000803e3d6000fd5b5050506020604051035193505050505b92915050565b600060018585858560405160008152602001604052604051808581526020018460ff1660ff1681526020018381526020018281526020019450505050506020604051602081039080840390855afa15801562000f51573d6000803e3d6000fd5b505050602060405103519050949350505050565b436000808381526020019081526020016000208190555050565b611d62806200103d83390190565b828054600181600116156101000203166002900490600052602060002090601f016020900481019282601f1062000fd057805160ff191683800117855562001001565b8280016001018555821562001001579182015b828111156200100057825182559160200191906001019062000fe3565b5b50905062001010919062001014565b5090565b6200103991905b80821115620010355760008160009055506001016200101b565b5090565b9056fe60806040526012600860006101000a81548160ff021916908360ff1602179055506871d75ab9b920500000600a553480156200003a57600080fd5b5060405162001d6238038062001d62833981810160405260408110156200006057600080fd5b8101908080516401000000008111156200007957600080fd5b828101905060208101848111156200009057600080fd5b8151856001820283011164010000000082111715620000ae57600080fd5b50509291906020018051640100000000811115620000cb57600080fd5b82810190506020810184811115620000e257600080fd5b81518560018202830111640100000000821117156200010057600080fd5b5050929190505050600073ffffffffffffffffffffffffffffffffffffffff16600560009054906101000a900473ffffffffffffffffffffffffffffffffffffffff1673ffffffffffffffffffffffffffffffffffffffff16146200016157fe5b62000172336200019f60201b60201c565b5062000184826200029c60201b60201c565b5062000196816200037160201b60201c565b505050620004f5565b60008073ffffffffffffffffffffffffffffffffffffffff16600560009054906101000a900473ffffffffffffffffffffffffffffffffffffffff1673ffffffffffffffffffffffffffffffffffffffff1614806200024b57503373ffffffffffffffffffffffffffffffffffffffff16600560009054906101000a900473ffffffffffffffffffffffffffffffffffffffff1673ffffffffffffffffffffffffffffffffffffffff16145b6200025257fe5b81600560006101000a81548173ffffffffffffffffffffffffffffffffffffffff021916908373ffffffffffffffffffffffffffffffffffffffff16021790555060019050919050565b60008073ffffffffffffffffffffffffffffffffffffffff16600560009054906101000a900473ffffffffffffffffffffffffffffffffffffffff1673ffffffffffffffffffffffffffffffffffffffff1614806200034857503373ffffffffffffffffffffffffffffffffffffffff16600560009054906101000a900473ffffffffffffffffffffffffffffffffffffffff1673ffffffffffffffffffffffffffffffffffffffff16145b6200034f57fe5b81600690805190602001906200036792919062000446565b5060019050919050565b60008073ffffffffffffffffffffffffffffffffffffffff16600560009054906101000a900473ffffffffffffffffffffffffffffffffffffffff1673ffffffffffffffffffffffffffffffffffffffff1614806200041d57503373ffffffffffffffffffffffffffffffffffffffff16600560009054906101000a900473ffffffffffffffffffffffffffffffffffffffff1673ffffffffffffffffffffffffffffffffffffffff16145b6200042457fe5b81600790805190602001906200043c92919062000446565b5060019050919050565b828054600181600116156101000203166002900490600052602060002090601f016020900481019282601f106200048957805160ff1916838001178555620004ba565b82800160010185558215620004ba579182015b82811115620004b95782518255916020019190600101906200049c565b5b509050620004c99190620004cd565b5090565b620004f291905b80821115620004ee576000816000905550600101620004d4565b5090565b90565b61185d80620005056000396000f3fe608060405234801561001057600080fd5b50600436106101005760003560e01c806370a0823111610097578063b84c824611610066578063b84c82461461054b578063c47f00271461061e578063d5abeb01146106f1578063dd62ed3e1461070f57610100565b806370a08231146103dd5780638da5cb5b14610435578063a457c2d71461047f578063a9059cbb146104e557610100565b80632b321194116100d35780632b3211941461026b57806339509351146102c757806340c10f191461032d578063674ddb531461039357610100565b8063095ea7b31461010557806313af40351461016b57806318160ddd146101c757806323b872dd146101e5575b600080fd5b6101516004803603604081101561011b57600080fd5b81019080803573ffffffffffffffffffffffffffffffffffffffff16906020019092919080359060200190929190505050610787565b604051808215151515815260200191505060405180910390f35b6101ad6004803603602081101561018157600080fd5b81019080803573ffffffffffffffffffffffffffffffffffffffff16906020019092919050505061079e565b604051808215151515815260200191505060405180910390f35b6101cf610899565b6040518082815260200191505060405180910390f35b610251600480360360608110156101fb57600080fd5b81019080803573ffffffffffffffffffffffffffffffffffffffff169060200190929190803573ffffffffffffffffffffffffffffffffffffffff169060200190929190803590602001909291905050506108a3565b604051808215151515815260200191505060405180910390f35b6102ad6004803603602081101561028157600080fd5b81019080803573ffffffffffffffffffffffffffffffffffffffff169060200190929190505050610954565b604051808215151515815260200191505060405180910390f35b610313600480360360408110156102dd57600080fd5b81019080803573ffffffffffffffffffffffffffffffffffffffff16906020019092919080359060200190929190505050610aa7565b604051808215151515815260200191505060405180910390f35b6103796004803603604081101561034357600080fd5b81019080803573ffffffffffffffffffffffffffffffffffffffff16906020019092919080359060200190929190505050610b4c565b604051808215151515815260200191505060405180910390f35b61039b610dce565b604051808273ffffffffffffffffffffffffffffffffffffffff1673ffffffffffffffffffffffffffffffffffffffff16815260200191505060405180910390f35b61041f600480360360208110156103f357600080fd5b81019080803573ffffffffffffffffffffffffffffffffffffffff169060200190929190505050610df4565b6040518082815260200191505060405180910390f35b61043d610e3c565b604051808273ffffffffffffffffffffffffffffffffffffffff1673ffffffffffffffffffffffffffffffffffffffff16815260200191505060405180910390f35b6104cb6004803603604081101561049557600080fd5b81019080803573ffffffffffffffffffffffffffffffffffffffff16906020019092919080359060200190929190505050610e66565b604051808215151515815260200191505060405180910390f35b610531600480360360408110156104fb57600080fd5b81019080803573ffffffffffffffffffffffffffffffffffffffff16906020019092919080359060200190929190505050610f0b565b604051808215151515815260200191505060405180910390f35b6106046004803603602081101561056157600080fd5b810190808035906020019064010000000081111561057e57600080fd5b82018360208201111561059057600080fd5b803590602001918460018302840111640100000000831117156105b257600080fd5b91908080601f016020809104026020016040519081016040528093929190818152602001838380828437600081840152601f19601f820116905080830192505050505050509192919290505050610f22565b604051808215151515815260200191505060405180910390f35b6106d76004803603602081101561063457600080fd5b810190808035906020019064010000000081111561065157600080fd5b82018360208201111561066357600080fd5b8035906020019184600183028401116401000000008311171561068557600080fd5b91908080601f016020809104026020016040519081016040528093929190818152602001838380828437600081840152601f19601f820116905080830192505050505050509192919290505050610ff3565b604051808215151515815260200191505060405180910390f35b6106f96110c4565b6040518082815260200191505060405180910390f35b6107716004803603604081101561072557600080fd5b81019080803573ffffffffffffffffffffffffffffffffffffffff169060200190929190803573ffffffffffffffffffffffffffffffffffffffff1690602001909291905050506110ca565b6040518082815260200191505060405180910390f35b6000610794338484611151565b6001905092915050565b60008073ffffffffffffffffffffffffffffffffffffffff16600560009054906101000a900473ffffffffffffffffffffffffffffffffffffffff1673ffffffffffffffffffffffffffffffffffffffff16148061084957503373ffffffffffffffffffffffffffffffffffffffff16600560009054906101000a900473ffffffffffffffffffffffffffffffffffffffff1673ffffffffffffffffffffffffffffffffffffffff16145b61084f57fe5b81600560006101000a81548173ffffffffffffffffffffffffffffffffffffffff021916908373ffffffffffffffffffffffffffffffffffffffff16021790555060019050919050565b6000600254905090565b60006108b0848484611348565b610949843361094485600160008a73ffffffffffffffffffffffffffffffffffffffff1673ffffffffffffffffffffffffffffffffffffffff16815260200190815260200160002060003373ffffffffffffffffffffffffffffffffffffffff1673ffffffffffffffffffffffffffffffffffffffff168152602001908152602001600020546115e490919063ffffffff16565b611151565b600190509392505050565b60008073ffffffffffffffffffffffffffffffffffffffff16600560009054906101000a900473ffffffffffffffffffffffffffffffffffffffff1673ffffffffffffffffffffffffffffffffffffffff1614806109ff57503373ffffffffffffffffffffffffffffffffffffffff16600560009054906101000a900473ffffffffffffffffffffffffffffffffffffffff1673ffffffffffffffffffffffffffffffffffffffff16145b610a0557fe5b600073ffffffffffffffffffffffffffffffffffffffff16600460009054906101000a900473ffffffffffffffffffffffffffffffffffffffff1673ffffffffffffffffffffffffffffffffffffffff1614610a5d57fe5b81600460006101000a81548173ffffffffffffffffffffffffffffffffffffffff021916908373ffffffffffffffffffffffffffffffffffffffff16021790555060019050919050565b6000610b423384610b3d85600160003373ffffffffffffffffffffffffffffffffffffffff1673ffffffffffffffffffffffffffffffffffffffff16815260200190815260200160002060008973ffffffffffffffffffffffffffffffffffffffff1673ffffffffffffffffffffffffffffffffffffffff1681526020019081526020016000205461166d90919063ffffffff16565b611151565b6001905092915050565b60008073ffffffffffffffffffffffffffffffffffffffff16600560009054906101000a900473ffffffffffffffffffffffffffffffffffffffff1673ffffffffffffffffffffffffffffffffffffffff161480610bf757503373ffffffffffffffffffffffffffffffffffffffff16600560009054906101000a900473ffffffffffffffffffffffffffffffffffffffff1673ffffffffffffffffffffffffffffffffffffffff16145b610bfd57fe5b600073ffffffffffffffffffffffffffffffffffffffff168373ffffffffffffffffffffffffffffffffffffffff161415610ca0576040517f08c379a000000000000000000000000000000000000000000000000000000000815260040180806020018281038252601f8152602001807f45524332303a206d696e7420746f20746865207a65726f20616464726573730081525060200191505060405180910390fd5b6000610cb78360095461166d90919063ffffffff16565b9050600a54811115610cc557fe5b80600981905550610d1e83600360008773ffffffffffffffffffffffffffffffffffffffff1673ffffffffffffffffffffffffffffffffffffffff1681526020019081526020016000205461166d90919063ffffffff16565b600360008673ffffffffffffffffffffffffffffffffffffffff1673ffffffffffffffffffffffffffffffffffffffff168152602001908152602001600020819055508373ffffffffffffffffffffffffffffffffffffffff16600073ffffffffffffffffffffffffffffffffffffffff167fddf252ad1be2c89b69c2b068fc378daa952ba7f163c4a11628f55a4df523b3ef856040518082815260200191505060405180910390a35092915050565b600460009054906101000a900473ffffffffffffffffffffffffffffffffffffffff1681565b60008060008373ffffffffffffffffffffffffffffffffffffffff1673ffffffffffffffffffffffffffffffffffffffff168152602001908152602001600020549050919050565b6000600560009054906101000a900473ffffffffffffffffffffffffffffffffffffffff16905090565b6000610f013384610efc85600160003373ffffffffffffffffffffffffffffffffffffffff1673ffffffffffffffffffffffffffffffffffffffff16815260200190815260200160002060008973ffffffffffffffffffffffffffffffffffffffff1673ffffffffffffffffffffffffffffffffffffffff168152602001908152602001600020546115e490919063ffffffff16565b611151565b6001905092915050565b6000610f18338484611348565b6001905092915050565b60008073ffffffffffffffffffffffffffffffffffffffff16600560009054906101000a900473ffffffffffffffffffffffffffffffffffffffff1673ffffffffffffffffffffffffffffffffffffffff161480610fcd57503373ffffffffffffffffffffffffffffffffffffffff16600560009054906101000a900473ffffffffffffffffffffffffffffffffffffffff1673ffffffffffffffffffffffffffffffffffffffff16145b610fd357fe5b8160079080519060200190610fe99291906116f5565b5060019050919050565b60008073ffffffffffffffffffffffffffffffffffffffff16600560009054906101000a900473ffffffffffffffffffffffffffffffffffffffff1673ffffffffffffffffffffffffffffffffffffffff16148061109e57503373ffffffffffffffffffffffffffffffffffffffff16600560009054906101000a900473ffffffffffffffffffffffffffffffffffffffff1673ffffffffffffffffffffffffffffffffffffffff16145b6110a457fe5b81600690805190602001906110ba9291906116f5565b5060019050919050565b600a5481565b6000600160008473ffffffffffffffffffffffffffffffffffffffff1673ffffffffffffffffffffffffffffffffffffffff16815260200190815260200160002060008373ffffffffffffffffffffffffffffffffffffffff1673ffffffffffffffffffffffffffffffffffffffff16815260200190815260200160002054905092915050565b600073ffffffffffffffffffffffffffffffffffffffff168373ffffffffffffffffffffffffffffffffffffffff1614156111d7576040517f08c379a00000000000000000000000000000000000000000000000000000000081526004018080602001828103825260248152602001806118056024913960400191505060405180910390fd5b600073ffffffffffffffffffffffffffffffffffffffff168273ffffffffffffffffffffffffffffffffffffffff16141561125d576040517f08c379a00000000000000000000000000000000000000000000000000000000081526004018080602001828103825260228152602001806117be6022913960400191505060405180910390fd5b80600160008573ffffffffffffffffffffffffffffffffffffffff1673ffffffffffffffffffffffffffffffffffffffff16815260200190815260200160002060008473ffffffffffffffffffffffffffffffffffffffff1673ffffffffffffffffffffffffffffffffffffffff168152602001908152602001600020819055508173ffffffffffffffffffffffffffffffffffffffff168373ffffffffffffffffffffffffffffffffffffffff167f8c5be1e5ebec7d5bd14f71427d1e84f3dd0314c0f7b2291e5b200ac8c7c3b925836040518082815260200191505060405180910390a3505050565b600073ffffffffffffffffffffffffffffffffffffffff168373ffffffffffffffffffffffffffffffffffffffff1614156113ce576040517f08c379a00000000000000000000000000000000000000000000000000000000081526004018080602001828103825260258152602001806117e06025913960400191505060405180910390fd5b600073ffffffffffffffffffffffffffffffffffffffff168273ffffffffffffffffffffffffffffffffffffffff161415611454576040517f08c379a000000000000000000000000000000000000000000000000000000000815260040180806020018281038252602381526020018061179b6023913960400191505060405180910390fd5b6114a5816000808673ffffffffffffffffffffffffffffffffffffffff1673ffffffffffffffffffffffffffffffffffffffff168152602001908152602001600020546115e490919063ffffffff16565b6000808573ffffffffffffffffffffffffffffffffffffffff1673ffffffffffffffffffffffffffffffffffffffff16815260200190815260200160002081905550611538816000808573ffffffffffffffffffffffffffffffffffffffff1673ffffffffffffffffffffffffffffffffffffffff1681526020019081526020016000205461166d90919063ffffffff16565b6000808473ffffffffffffffffffffffffffffffffffffffff1673ffffffffffffffffffffffffffffffffffffffff168152602001908152602001600020819055508173ffffffffffffffffffffffffffffffffffffffff168373ffffffffffffffffffffffffffffffffffffffff167fddf252ad1be2c89b69c2b068fc378daa952ba7f163c4a11628f55a4df523b3ef836040518082815260200191505060405180910390a3505050565b60008282111561165c576040517f08c379a000000000000000000000000000000000000000000000000000000000815260040180806020018281038252601e8152602001807f536166654d6174683a207375627472616374696f6e206f766572666c6f77000081525060200191505060405180910390fd5b600082840390508091505092915050565b6000808284019050838110156116eb576040517f08c379a000000000000000000000000000000000000000000000000000000000815260040180806020018281038252601b8152602001807f536166654d6174683a206164646974696f6e206f766572666c6f77000000000081525060200191505060405180910390fd5b8091505092915050565b828054600181600116156101000203166002900490600052602060002090601f016020900481019282601f1061173657805160ff1916838001178555611764565b82800160010185558215611764579182015b82811115611763578251825591602001919060010190611748565b5b5090506117719190611775565b5090565b61179791905b8082111561179357600081600090555060010161177b565b5090565b9056fe45524332303a207472616e7366657220746f20746865207a65726f206164647265737345524332303a20617070726f766520746f20746865207a65726f206164647265737345524332303a207472616e736665722066726f6d20746865207a65726f206164647265737345524332303a20617070726f76652066726f6d20746865207a65726f2061646472657373a265627a7a72305820c602c2af8f08c1e5100332fa0df22ef3390ca4fb57bfc39419660e5185d90efd64736f6c634300050a0032a265627a7a7230582099524e1176c472f9173b1bb22a00fa3a5225751e0dc8881393d735ab978de3f164736f6c634300050a0032",
  "source": "pragma solidity ^0.5.10;\n\nimport \"../utils/Validator.sol\";\nimport \"../UsernameToken.sol\";\n\ncontract Creator is Validator {\n  address public owner;\n  mapping (string => address) public symbolToToken;\n  mapping (address => string) public tokenToSymbol;\n  address[] public tokens;\n\n  event Create(string indexed symbol, address indexed token, address creator);\n\n  function create(string memory symbol, bytes32 hash, uint8 v, bytes32 r, bytes32 s)\n      public\n      onlyUnseenMessage(hash)\n      onlyValidSignature(owner, hash, v, r, s)\n      returns(bool)\n  {\n    assert(hash == getCreateHash(symbol));\n    assert(isValidSignature(owner, hash, v,r,s));\n\n    address usernameToken = address(new UsernameToken(symbol, symbol));\n    symbolToToken[symbol] = usernameToken;\n    tokenToSymbol[usernameToken] = symbol;\n    tokens.push(usernameToken);\n\n    setSeenMessage(hash);\n\n    return true;\n  }\n\n    function tokenLength() public view returns (uint256){\n      return tokens.length;\n    }\n\n    function getCreateHash(string memory symbol) public pure returns (bytes32 _hash){\n        return keccak256(abi.encodePacked(\"CREATE\", symbol));\n    }\n}",
  "sourcePath": "/usr/src/app/contracts/classes/Creator.sol",
  "compiler": {
    "name": "solc",
    "version": "0.5.10+commit.5a6ea5b1.Emscripten.clang"
  },
  "schemaVersion": "3.0.11",
  "updatedAt": "2019-07-18T15:10:45.790Z",
  "devdoc": {
    "methods": {}
  },
  "userdoc": {
    "methods": {}
  }
}