{
  "contractName": "Minter",
  "abi": [
    {
      "constant": true,
      "inputs": [
        {
          "name": "hash",
          "type": "bytes32"
        },
        {
          "name": "v",
          "type": "uint8"
        },
        {
          "name": "r",
          "type": "bytes32"
        },
        {
          "name": "s",
          "type": "bytes32"
        }
      ],
      "name": "recoverEthSignedMessage",
      "outputs": [
        {
          "name": "",
          "type": "address"
        }
      ],
      "payable": false,
      "stateMutability": "pure",
      "type": "function"
    },
    {
      "constant": true,
      "inputs": [
        {
          "name": "messageId",
          "type": "bytes32"
        }
      ],
      "name": "seenMessage",
      "outputs": [
        {
          "name": "",
          "type": "bool"
        }
      ],
      "payable": false,
      "stateMutability": "view",
      "type": "function"
    },
    {
      "constant": true,
      "inputs": [
        {
          "name": "signer",
          "type": "address"
        },
        {
          "name": "hash",
          "type": "bytes32"
        },
        {
          "name": "v",
          "type": "uint8"
        },
        {
          "name": "r",
          "type": "bytes32"
        },
        {
          "name": "s",
          "type": "bytes32"
        }
      ],
      "name": "isValidSignature",
      "outputs": [
        {
          "name": "",
          "type": "bool"
        }
      ],
      "payable": false,
      "stateMutability": "pure",
      "type": "function"
    },
    {
      "constant": true,
      "inputs": [],
      "name": "owner",
      "outputs": [
        {
          "name": "",
          "type": "address"
        }
      ],
      "payable": false,
      "stateMutability": "view",
      "type": "function"
    },
    {
      "constant": true,
      "inputs": [
        {
          "name": "",
          "type": "bytes32"
        }
      ],
      "name": "messageIdToBlockNumber",
      "outputs": [
        {
          "name": "",
          "type": "uint256"
        }
      ],
      "payable": false,
      "stateMutability": "view",
      "type": "function"
    },
    {
      "anonymous": false,
      "inputs": [
        {
          "indexed": false,
          "name": "token",
          "type": "address"
        },
        {
          "indexed": false,
          "name": "account",
          "type": "address"
        },
        {
          "indexed": false,
          "name": "amount",
          "type": "uint256"
        },
        {
          "indexed": false,
          "name": "messageId",
          "type": "bytes32"
        }
      ],
      "name": "Mint",
      "type": "event"
    },
    {
      "constant": false,
      "inputs": [
        {
          "name": "token",
          "type": "address"
        },
        {
          "name": "amount",
          "type": "uint256"
        },
        {
          "name": "salt",
          "type": "uint256"
        },
        {
          "name": "messageId",
          "type": "bytes32"
        },
        {
          "name": "v",
          "type": "uint8"
        },
        {
          "name": "r",
          "type": "bytes32"
        },
        {
          "name": "s",
          "type": "bytes32"
        }
      ],
      "name": "mint",
      "outputs": [
        {
          "name": "",
          "type": "bool"
        }
      ],
      "payable": false,
      "stateMutability": "nonpayable",
      "type": "function"
    },
    {
      "constant": true,
      "inputs": [
        {
          "name": "token",
          "type": "address"
        },
        {
          "name": "account",
          "type": "address"
        },
        {
          "name": "amount",
          "type": "uint256"
        },
        {
          "name": "salt",
          "type": "uint256"
        }
      ],
      "name": "getMintMessageId",
      "outputs": [
        {
          "name": "",
          "type": "bytes32"
        }
      ],
      "payable": false,
      "stateMutability": "pure",
      "type": "function"
    }
  ],
  "bytecode": "0x608060405234801561001057600080fd5b506109c6806100206000396000f3fe608060405234801561001057600080fd5b506004361061007d5760003560e01c80638da5cb5b1161005b5780638da5cb5b146101de5780638e272c7114610228578063a733dbe7146102b4578063ba29ba401461034f5761007d565b806348a532501461008257806358da3a8d146101115780638163681e14610157575b600080fd5b6100cf6004803603608081101561009857600080fd5b8101908080359060200190929190803560ff1690602001909291908035906020019092919080359060200190929190505050610391565b604051808273ffffffffffffffffffffffffffffffffffffffff1673ffffffffffffffffffffffffffffffffffffffff16815260200191505060405180910390f35b61013d6004803603602081101561012757600080fd5b8101908080359060200190929190505050610452565b604051808215151515815260200191505060405180910390f35b6101c4600480360360a081101561016d57600080fd5b81019080803573ffffffffffffffffffffffffffffffffffffffff16906020019092919080359060200190929190803560ff1690602001909291908035906020019092919080359060200190929190505050610471565b604051808215151515815260200191505060405180910390f35b6101e66104b8565b604051808273ffffffffffffffffffffffffffffffffffffffff1673ffffffffffffffffffffffffffffffffffffffff16815260200191505060405180910390f35b61029e6004803603608081101561023e57600080fd5b81019080803573ffffffffffffffffffffffffffffffffffffffff169060200190929190803573ffffffffffffffffffffffffffffffffffffffff16906020019092919080359060200190929190803590602001909291905050506104dd565b6040518082815260200191505060405180910390f35b610335600480360360e08110156102ca57600080fd5b81019080803573ffffffffffffffffffffffffffffffffffffffff169060200190929190803590602001909291908035906020019092919080359060200190929190803560ff16906020019092919080359060200190929190803590602001909291905050506105ae565b604051808215151515815260200191505060405180910390f35b61037b6004803603602081101561036557600080fd5b8101908080359060200190929190505050610934565b6040518082815260200191505060405180910390f35b600060018560405160200180807f19457468657265756d205369676e6564204d6573736167653a0a333200000000815250601c018281526020019150506040516020818303038152906040528051906020012085858560405160008152602001604052604051808581526020018460ff1660ff1681526020018381526020018281526020019450505050506020604051602081039080840390855afa15801561043e573d6000803e3d6000fd5b505050602060405103519050949350505050565b6000806001600084815260200190815260200160002054119050919050565b600061047f85858585610391565b73ffffffffffffffffffffffffffffffffffffffff168673ffffffffffffffffffffffffffffffffffffffff1614905095945050505050565b6000809054906101000a900473ffffffffffffffffffffffffffffffffffffffff1681565b60008484848460405160200180807f4d494e54000000000000000000000000000000000000000000000000000000008152506004018573ffffffffffffffffffffffffffffffffffffffff1673ffffffffffffffffffffffffffffffffffffffff1660601b81526014018473ffffffffffffffffffffffffffffffffffffffff1673ffffffffffffffffffffffffffffffffffffffff1660601b8152601401838152602001828152602001945050505050604051602081830303815290604052805190602001209050949350505050565b600084600015156105be82610452565b151514610616576040517f08c379a000000000000000000000000000000000000000000000000000000000815260040180806020018281038252602a815260200180610968602a913960400191505060405180910390fd5b6000809054906101000a900473ffffffffffffffffffffffffffffffffffffffff16868686866106498585858585610471565b6106bb576040517f08c379a00000000000000000000000000000000000000000000000000000000081526004018080602001828103825260178152602001807f323130303a20696e76616c6964207369676e617475726500000000000000000081525060200191505060405180910390fd5b6106c78e338f8f6104dd565b8b1461073b576040517f08c379a000000000000000000000000000000000000000000000000000000000815260040180806020018281038252601a8152602001807f323130303a206d657373616765496420697320696e76616c696400000000000081525060200191505060405180910390fd5b8d73ffffffffffffffffffffffffffffffffffffffff166340c10f19338f6040518363ffffffff1660e01b8152600401808373ffffffffffffffffffffffffffffffffffffffff1673ffffffffffffffffffffffffffffffffffffffff16815260200182815260200192505050602060405180830381600087803b1580156107c257600080fd5b505af11580156107d6573d6000803e3d6000fd5b505050506040513d60208110156107ec57600080fd5b810190808051906020019092919050505061086f576040517f08c379a000000000000000000000000000000000000000000000000000000000815260040180806020018281038252601a8152602001807f323130303a204d696e74696e6720746f6b656e206661696c656400000000000081525060200191505060405180910390fd5b7f692b6d6e8b9cda6d9a5aabac3677faeb10ae6f6a0090e5e7adf420efe94993b58e338f8e604051808573ffffffffffffffffffffffffffffffffffffffff1673ffffffffffffffffffffffffffffffffffffffff1681526020018473ffffffffffffffffffffffffffffffffffffffff1673ffffffffffffffffffffffffffffffffffffffff16815260200183815260200182815260200194505050505060405180910390a16001965050505050506109288161094c565b50979650505050505050565b60016020528060005260406000206000915090505481565b4360016000838152602001908152602001600020819055505056fe323130303a2074686973206d6573736167652068617320616c65616479206265656e2070726f63657373a265627a7a72305820709e01600b7c607141dea72c9f26d8b5a8bf8f21d3f58c048be44887c748d52964736f6c634300050a0032",
  "source": "pragma solidity ^0.5.10;\n\nimport \"../utils/Validator.sol\";\nimport \"../UsernameToken.sol\";\n\ncontract Minter is Validator {\n\n    event Mint(address token, address account, uint256 amount, bytes32 messageId);\n\n    function mint(address token, uint amount, uint salt, bytes32 messageId, uint8 v, bytes32 r, bytes32 s)\n        public\n        onlyUnseenMessage(messageId)\n        onlyValidSignature(owner, messageId, v, r, s)\n        returns(bool)\n    {\n        require(messageId == getMintMessageId(token, msg.sender, amount, salt), '2100: messageId is invalid'); // details and messageId match\n\n        require(UsernameToken(token).mint(msg.sender, amount), '2100: Minting token failed');\n\n        emit Mint(token, msg.sender, amount, messageId);\n        return true;\n    }\n\n    function getMintMessageId(address token, address account, uint amount, uint salt) public pure returns (bytes32){\n        return keccak256(abi.encodePacked(\"MINT\", token, account, amount, salt));\n    }\n\n}",
  "sourcePath": "/usr/src/app/contracts/classes/Minter.sol",
  "compiler": {
    "name": "solc",
    "version": "0.5.10+commit.5a6ea5b1.Emscripten.clang"
  },
  "schemaVersion": "3.0.11",
  "updatedAt": "2019-07-26T01:49:07.076Z",
  "devdoc": {
    "methods": {}
  },
  "userdoc": {
    "methods": {}
  }
}