{
  "contractName": "Minter",
  "abi": [
    {
      "constant": true,
      "inputs": [
        {
          "name": "signer",
          "type": "address"
        },
        {
          "name": "hash",
          "type": "bytes32"
        },
        {
          "name": "signature",
          "type": "bytes"
        }
      ],
      "name": "isValidSignature",
      "outputs": [
        {
          "name": "_valid",
          "type": "bool"
        }
      ],
      "payable": false,
      "stateMutability": "pure",
      "type": "function"
    },
    {
      "constant": true,
      "inputs": [
        {
          "name": "messageId",
          "type": "bytes32"
        }
      ],
      "name": "seenMessage",
      "outputs": [
        {
          "name": "_seen",
          "type": "bool"
        }
      ],
      "payable": false,
      "stateMutability": "view",
      "type": "function"
    },
    {
      "constant": true,
      "inputs": [
        {
          "name": "signer",
          "type": "address"
        },
        {
          "name": "hash",
          "type": "bytes32"
        },
        {
          "name": "v",
          "type": "uint8"
        },
        {
          "name": "r",
          "type": "bytes32"
        },
        {
          "name": "s",
          "type": "bytes32"
        }
      ],
      "name": "isValidSignature",
      "outputs": [
        {
          "name": "_valid",
          "type": "bool"
        }
      ],
      "payable": false,
      "stateMutability": "pure",
      "type": "function"
    },
    {
      "constant": true,
      "inputs": [],
      "name": "owner",
      "outputs": [
        {
          "name": "",
          "type": "address"
        }
      ],
      "payable": false,
      "stateMutability": "view",
      "type": "function"
    },
    {
      "constant": true,
      "inputs": [
        {
          "name": "",
          "type": "bytes32"
        }
      ],
      "name": "messageIdToBlockNumber",
      "outputs": [
        {
          "name": "",
          "type": "uint256"
        }
      ],
      "payable": false,
      "stateMutability": "view",
      "type": "function"
    },
    {
      "anonymous": false,
      "inputs": [
        {
          "indexed": true,
          "name": "token",
          "type": "address"
        },
        {
          "indexed": true,
          "name": "account",
          "type": "address"
        },
        {
          "indexed": false,
          "name": "amount",
          "type": "uint256"
        },
        {
          "indexed": false,
          "name": "hash",
          "type": "bytes32"
        }
      ],
      "name": "Mint",
      "type": "event"
    },
    {
      "constant": false,
      "inputs": [
        {
          "name": "token",
          "type": "address"
        },
        {
          "name": "amount",
          "type": "uint256"
        },
        {
          "name": "salt",
          "type": "uint256"
        },
        {
          "name": "hash",
          "type": "bytes32"
        },
        {
          "name": "v",
          "type": "uint8"
        },
        {
          "name": "r",
          "type": "bytes32"
        },
        {
          "name": "s",
          "type": "bytes32"
        }
      ],
      "name": "mint",
      "outputs": [
        {
          "name": "",
          "type": "bool"
        }
      ],
      "payable": false,
      "stateMutability": "nonpayable",
      "type": "function"
    },
    {
      "constant": true,
      "inputs": [
        {
          "name": "token",
          "type": "address"
        },
        {
          "name": "account",
          "type": "address"
        },
        {
          "name": "amount",
          "type": "uint256"
        },
        {
          "name": "salt",
          "type": "uint256"
        }
      ],
      "name": "getMintHash",
      "outputs": [
        {
          "name": "_hash",
          "type": "bytes32"
        }
      ],
      "payable": false,
      "stateMutability": "pure",
      "type": "function"
    }
  ],
  "bytecode": "0x608060405234801561001057600080fd5b506109e7806100206000396000f3fe608060405234801561001057600080fd5b506004361061007d5760003560e01c80638da5cb5b1161005b5780638da5cb5b1461024c578063a733dbe714610296578063ac55d2fc14610331578063ba29ba40146103bd5761007d565b8063238a4d1e1461008257806358da3a8d1461017f5780638163681e146101c5575b600080fd5b6101656004803603606081101561009857600080fd5b81019080803573ffffffffffffffffffffffffffffffffffffffff16906020019092919080359060200190929190803590602001906401000000008111156100df57600080fd5b8201836020820111156100f157600080fd5b8035906020019184600183028401116401000000008311171561011357600080fd5b91908080601f016020809104026020016040519081016040528093929190818152602001838380828437600081840152601f19601f8201169050808301925050505050505091929192905050506103ff565b604051808215151515815260200191505060405180910390f35b6101ab6004803603602081101561019557600080fd5b8101908080359060200190929190505050610453565b604051808215151515815260200191505060405180910390f35b610232600480360360a08110156101db57600080fd5b81019080803573ffffffffffffffffffffffffffffffffffffffff16906020019092919080359060200190929190803560ff1690602001909291908035906020019092919080359060200190929190505050610471565b604051808215151515815260200191505060405180910390f35b6102546104cb565b604051808273ffffffffffffffffffffffffffffffffffffffff1673ffffffffffffffffffffffffffffffffffffffff16815260200191505060405180910390f35b610317600480360360e08110156102ac57600080fd5b81019080803573ffffffffffffffffffffffffffffffffffffffff169060200190929190803590602001909291908035906020019092919080359060200190929190803560ff16906020019092919080359060200190929190803590602001909291905050506104f1565b604051808215151515815260200191505060405180910390f35b6103a76004803603608081101561034757600080fd5b81019080803573ffffffffffffffffffffffffffffffffffffffff169060200190929190803573ffffffffffffffffffffffffffffffffffffffff16906020019092919080359060200190929190803590602001909291905050506106e0565b6040518082815260200191505060405180910390f35b6103e9600480360360208110156103d357600080fd5b81019080803590602001909291905050506107b1565b6040518082815260200191505060405180910390f35b600061041c8261040e856107c9565b61082190919063ffffffff16565b73ffffffffffffffffffffffffffffffffffffffff168473ffffffffffffffffffffffffffffffffffffffff161490509392505050565b60008060008084815260200190815260200160002054119050919050565b6000610492848484610482896107c9565b610925909392919063ffffffff16565b73ffffffffffffffffffffffffffffffffffffffff168673ffffffffffffffffffffffffffffffffffffffff1614905095945050505050565b600160009054906101000a900473ffffffffffffffffffffffffffffffffffffffff1681565b6000846000151561050182610453565b15151461050a57fe5b600160009054906101000a900473ffffffffffffffffffffffffffffffffffffffff168686868661053e8585858585610471565b61054457fe5b6105508e338f8f6106e0565b8b1461055857fe5b610587600160009054906101000a900473ffffffffffffffffffffffffffffffffffffffff168c8c8c8c610471565b61058d57fe5b8d73ffffffffffffffffffffffffffffffffffffffff166340c10f19338f6040518363ffffffff1660e01b8152600401808373ffffffffffffffffffffffffffffffffffffffff1673ffffffffffffffffffffffffffffffffffffffff16815260200182815260200192505050602060405180830381600087803b15801561061457600080fd5b505af1158015610628573d6000803e3d6000fd5b505050506040513d602081101561063e57600080fd5b810190808051906020019092919050505061065557fe5b61065e8b610998565b3373ffffffffffffffffffffffffffffffffffffffff168e73ffffffffffffffffffffffffffffffffffffffff167f692b6d6e8b9cda6d9a5aabac3677faeb10ae6f6a0090e5e7adf420efe94993b58f8e604051808381526020018281526020019250505060405180910390a360019650505050505050979650505050505050565b60008484848460405160200180807f4d494e54000000000000000000000000000000000000000000000000000000008152506004018573ffffffffffffffffffffffffffffffffffffffff1673ffffffffffffffffffffffffffffffffffffffff1660601b81526014018473ffffffffffffffffffffffffffffffffffffffff1673ffffffffffffffffffffffffffffffffffffffff1660601b8152601401838152602001828152602001945050505050604051602081830303815290604052805190602001209050949350505050565b60006020528060005260406000206000915090505481565b60008160405160200180807f19457468657265756d205369676e6564204d6573736167653a0a333200000000815250601c01828152602001915050604051602081830303815290604052805190602001209050919050565b60006041825114610835576000905061091f565b60008060006020850151925060408501519150606085015160001a90507f7fffffffffffffffffffffffffffffff5d576e7357a4501ddfe92f46681b20a08260001c1115610889576000935050505061091f565b601b8160ff16141580156108a15750601c8160ff1614155b156108b2576000935050505061091f565b60018682858560405160008152602001604052604051808581526020018460ff1660ff1681526020018381526020018281526020019450505050506020604051602081039080840390855afa15801561090f573d6000803e3d6000fd5b5050506020604051035193505050505b92915050565b600060018585858560405160008152602001604052604051808581526020018460ff1660ff1681526020018381526020018281526020019450505050506020604051602081039080840390855afa158015610984573d6000803e3d6000fd5b505050602060405103519050949350505050565b43600080838152602001908152602001600020819055505056fea265627a7a7230582058944c50edf1b2a5091407dee2a899ca961cf49d9917f2f7f682c8bdc1a289d364736f6c634300050a0032",
  "source": "pragma solidity ^0.5.10;\n\nimport \"../utils/Validator.sol\";\nimport \"../UsernameToken.sol\";\n\ncontract Minter is Validator {\n\n    address public owner;\n\n    event Mint(address indexed token, address indexed account, uint256 amount, bytes32 hash);\n\n    function mint(address token, uint amount, uint salt, bytes32 hash, uint8 v, bytes32 r, bytes32 s)\n        public\n        onlyUnseenMessage(hash)\n        onlyValidSignature(owner, hash, v, r, s)\n        returns(bool)\n    {\n        assert(hash == getMintHash(token, msg.sender, amount, salt)); // details and hash match\n        assert(isValidSignature(owner, hash, v,r,s)); // owner signed this message\n        assert(UsernameToken(token).mint(msg.sender, amount));\n        setSeenMessage(hash);\n        emit Mint(token, msg.sender, amount, hash);\n        return true;\n    }\n\n    function getMintHash(address token, address account, uint amount, uint salt) public pure returns (bytes32 _hash){\n        return keccak256(abi.encodePacked(\"MINT\", token, account, amount, salt));\n    }\n\n}",
  "sourcePath": "/usr/src/app/contracts/classes/Minter.sol",
  "compiler": {
    "name": "solc",
    "version": "0.5.10+commit.5a6ea5b1.Emscripten.clang"
  },
  "schemaVersion": "3.0.11",
  "updatedAt": "2019-07-18T15:10:45.823Z",
  "devdoc": {
    "methods": {}
  },
  "userdoc": {
    "methods": {}
  }
}