{
  "contractName": "Ownable",
  "abi": [
    {
      "constant": true,
      "inputs": [],
      "name": "owner",
      "outputs": [
        {
          "name": "",
          "type": "address"
        }
      ],
      "payable": false,
      "stateMutability": "view",
      "type": "function"
    }
  ],
  "bytecode": "0x608060405234801561001057600080fd5b5060cf8061001f6000396000f3fe6080604052348015600f57600080fd5b506004361060285760003560e01c80638da5cb5b14602d575b600080fd5b60336075565b604051808273ffffffffffffffffffffffffffffffffffffffff1673ffffffffffffffffffffffffffffffffffffffff16815260200191505060405180910390f35b6000809054906101000a900473ffffffffffffffffffffffffffffffffffffffff168156fea265627a7a723058208aa69b479396c891cdb1f7cbef06a3bf528ac650144056938620ee8e3c9b937164736f6c634300050a0032",
  "source": "pragma solidity ^0.5.10;\n\ncontract Ownable{\n  address public owner;\n\n  modifier onlyOwner() {\n      assert(owner == address(0) || owner == msg.sender);\n      _;\n  }\n\n  modifier notOwner() {\n      require(owner != msg.sender, \"2100: Owner cannot call this function\");\n      _;\n  }\n}",
  "sourcePath": "/usr/src/app/contracts/classes/Ownable.sol",
  "compiler": {
    "name": "solc",
    "version": "0.5.10+commit.5a6ea5b1.Emscripten.clang"
  },
  "schemaVersion": "3.0.11",
  "updatedAt": "2019-07-26T01:48:50.932Z",
  "devdoc": {
    "methods": {}
  },
  "userdoc": {
    "methods": {}
  }
}