{
  "contractName": "TokenClaimer",
  "abi": [
    {
      "constant": true,
      "inputs": [
        {
          "name": "",
          "type": "bytes32"
        }
      ],
      "name": "signedMessages",
      "outputs": [
        {
          "name": "",
          "type": "uint256"
        }
      ],
      "payable": false,
      "stateMutability": "view",
      "type": "function"
    },
    {
      "constant": true,
      "inputs": [
        {
          "name": "signer",
          "type": "address"
        },
        {
          "name": "hash",
          "type": "bytes32"
        },
        {
          "name": "v",
          "type": "uint8"
        },
        {
          "name": "r",
          "type": "bytes32"
        },
        {
          "name": "s",
          "type": "bytes32"
        }
      ],
      "name": "isValidSignature",
      "outputs": [
        {
          "name": "_valid",
          "type": "bool"
        }
      ],
      "payable": false,
      "stateMutability": "pure",
      "type": "function"
    },
    {
      "constant": true,
      "inputs": [],
      "name": "admin",
      "outputs": [
        {
          "name": "",
          "type": "address"
        }
      ],
      "payable": false,
      "stateMutability": "view",
      "type": "function"
    },
    {
      "anonymous": false,
      "inputs": [
        {
          "indexed": true,
          "name": "token",
          "type": "address"
        },
        {
          "indexed": true,
          "name": "user",
          "type": "address"
        },
        {
          "indexed": false,
          "name": "value",
          "type": "uint256"
        }
      ],
      "name": "Claim",
      "type": "event"
    },
    {
      "constant": false,
      "inputs": [
        {
          "name": "token",
          "type": "address"
        },
        {
          "name": "amount",
          "type": "uint256"
        },
        {
          "name": "salt",
          "type": "uint256"
        },
        {
          "name": "hash",
          "type": "bytes32"
        },
        {
          "name": "v",
          "type": "uint8"
        },
        {
          "name": "r",
          "type": "bytes32"
        },
        {
          "name": "s",
          "type": "bytes32"
        }
      ],
      "name": "claim",
      "outputs": [
        {
          "name": "",
          "type": "bool"
        }
      ],
      "payable": false,
      "stateMutability": "nonpayable",
      "type": "function"
    },
    {
      "constant": true,
      "inputs": [
        {
          "name": "token",
          "type": "address"
        },
        {
          "name": "claimant",
          "type": "address"
        },
        {
          "name": "amount",
          "type": "uint256"
        },
        {
          "name": "salt",
          "type": "uint256"
        }
      ],
      "name": "getClaimHash",
      "outputs": [
        {
          "name": "_hash",
          "type": "bytes32"
        }
      ],
      "payable": false,
      "stateMutability": "pure",
      "type": "function"
    }
  ],
  "bytecode": "0x608060405234801561001057600080fd5b506106b8806100206000396000f3fe608060405234801561001057600080fd5b50600436106100575760003560e01c806318cdd38e1461005c5780635ae6bd37146100e85780638163681e1461012a5780638bc32e0e146101b1578063f851a4401461024c575b600080fd5b6100d26004803603608081101561007257600080fd5b81019080803573ffffffffffffffffffffffffffffffffffffffff169060200190929190803573ffffffffffffffffffffffffffffffffffffffff1690602001909291908035906020019092919080359060200190929190505050610296565b6040518082815260200191505060405180910390f35b610114600480360360208110156100fe57600080fd5b8101908080359060200190929190505050610367565b6040518082815260200191505060405180910390f35b610197600480360360a081101561014057600080fd5b81019080803573ffffffffffffffffffffffffffffffffffffffff16906020019092919080359060200190929190803560ff169060200190929190803590602001909291908035906020019092919050505061037f565b604051808215151515815260200191505060405180910390f35b610232600480360360e08110156101c757600080fd5b81019080803573ffffffffffffffffffffffffffffffffffffffff169060200190929190803590602001909291908035906020019092919080359060200190929190803560ff16906020019092919080359060200190929190803590602001909291905050506103d9565b604051808215151515815260200191505060405180910390f35b610254610593565b604051808273ffffffffffffffffffffffffffffffffffffffff1673ffffffffffffffffffffffffffffffffffffffff16815260200191505060405180910390f35b60008484848460405160200180807f434c41494d0000000000000000000000000000000000000000000000000000008152506005018573ffffffffffffffffffffffffffffffffffffffff1673ffffffffffffffffffffffffffffffffffffffff1660601b81526014018473ffffffffffffffffffffffffffffffffffffffff1673ffffffffffffffffffffffffffffffffffffffff1660601b8152601401838152602001828152602001945050505050604051602081830303815290604052805190602001209050949350505050565b60016020528060005260406000206000915090505481565b60006103a0848484610390896105b8565b610610909392919063ffffffff16565b73ffffffffffffffffffffffffffffffffffffffff168673ffffffffffffffffffffffffffffffffffffffff1614905095945050505050565b6000806001600087815260200190815260200160002054146103f757fe5b61040388338989610296565b851461040b57fe5b6104396000809054906101000a900473ffffffffffffffffffffffffffffffffffffffff168686868661037f565b61043f57fe5b4360016000878152602001908152602001600020819055508773ffffffffffffffffffffffffffffffffffffffff166340c10f1933896040518363ffffffff1660e01b8152600401808373ffffffffffffffffffffffffffffffffffffffff1673ffffffffffffffffffffffffffffffffffffffff16815260200182815260200192505050602060405180830381600087803b1580156104de57600080fd5b505af11580156104f2573d6000803e3d6000fd5b505050506040513d602081101561050857600080fd5b810190808051906020019092919050505061051f57fe5b3373ffffffffffffffffffffffffffffffffffffffff168873ffffffffffffffffffffffffffffffffffffffff167f70eb43c4a8ae8c40502dcf22436c509c28d6ff421cf07c491be56984bd987068896040518082815260200191505060405180910390a360019050979650505050505050565b6000809054906101000a900473ffffffffffffffffffffffffffffffffffffffff1681565b60008160405160200180807f19457468657265756d205369676e6564204d6573736167653a0a333200000000815250601c01828152602001915050604051602081830303815290604052805190602001209050919050565b600060018585858560405160008152602001604052604051808581526020018460ff1660ff1681526020018381526020018281526020019450505050506020604051602081039080840390855afa15801561066f573d6000803e3d6000fd5b50505060206040510351905094935050505056fea265627a7a72305820f74253b62f911f0af1fe7b54aa845978d144d650700a2116560eae6ae242e66d64736f6c634300050a0032",
  "source": "pragma solidity ^0.5.10;\n\nimport \"./ValidationChecker.sol\";\nimport \"./ERC20.sol\";\n\ncontract TokenClaimer is ValidationChecker {\n\n    address public admin;\n\n    event Claim(address indexed token, address indexed user, uint256 value);\n\n    mapping (bytes32 => uint) public signedMessages;\n\n    function claim(address token, uint amount, uint salt, bytes32 hash, uint8 v, bytes32 r, bytes32 s) public returns(bool)\n    {\n        assert(signedMessages[hash] == 0); // messages hasnt been processed\n        assert(hash == getClaimHash(token, msg.sender, amount, salt)); // details and hash match\n        assert(isValidSignature(admin, hash, v,r,s)); // admin signed this message\n        signedMessages[hash] = block.number;\n        assert(ERC20(token).mint(msg.sender, amount));\n        emit Claim(token, msg.sender, amount);\n        return true;\n    }\n\n    function getClaimHash(address token, address claimant, uint amount, uint salt) public pure returns (bytes32 _hash)\n    {\n        return keccak256(abi.encodePacked(\"CLAIM\", token, claimant, amount, salt));\n    }\n\n}",
  "sourcePath": "/usr/src/app/contracts/TokenClaimer.sol",
  "compiler": {
    "name": "solc",
    "version": "0.5.10+commit.5a6ea5b1.Emscripten.clang"
  },
  "schemaVersion": "3.0.11",
  "updatedAt": "2019-07-10T16:56:14.471Z",
  "devdoc": {
    "methods": {}
  },
  "userdoc": {
    "methods": {}
  }
}