{
  "contractName": "Validator",
  "abi": [
    {
      "constant": true,
      "inputs": [
        {
          "name": "",
          "type": "bytes32"
        }
      ],
      "name": "messageIdToBlockNumber",
      "outputs": [
        {
          "name": "",
          "type": "uint256"
        }
      ],
      "payable": false,
      "stateMutability": "view",
      "type": "function"
    },
    {
      "constant": true,
      "inputs": [
        {
          "name": "messageId",
          "type": "bytes32"
        }
      ],
      "name": "seenMessage",
      "outputs": [
        {
          "name": "_seen",
          "type": "bool"
        }
      ],
      "payable": false,
      "stateMutability": "view",
      "type": "function"
    },
    {
      "constant": true,
      "inputs": [
        {
          "name": "signer",
          "type": "address"
        },
        {
          "name": "hash",
          "type": "bytes32"
        },
        {
          "name": "signature",
          "type": "bytes"
        }
      ],
      "name": "isValidSignature",
      "outputs": [
        {
          "name": "_valid",
          "type": "bool"
        }
      ],
      "payable": false,
      "stateMutability": "pure",
      "type": "function"
    },
    {
      "constant": true,
      "inputs": [
        {
          "name": "signer",
          "type": "address"
        },
        {
          "name": "hash",
          "type": "bytes32"
        },
        {
          "name": "v",
          "type": "uint8"
        },
        {
          "name": "r",
          "type": "bytes32"
        },
        {
          "name": "s",
          "type": "bytes32"
        }
      ],
      "name": "isValidSignature",
      "outputs": [
        {
          "name": "_valid",
          "type": "bool"
        }
      ],
      "payable": false,
      "stateMutability": "pure",
      "type": "function"
    }
  ],
  "bytecode": "0x608060405234801561001057600080fd5b50610545806100206000396000f3fe608060405234801561001057600080fd5b506004361061004c5760003560e01c8063238a4d1e1461005157806358da3a8d1461014e5780638163681e14610194578063ba29ba401461021b575b600080fd5b6101346004803603606081101561006757600080fd5b81019080803573ffffffffffffffffffffffffffffffffffffffff16906020019092919080359060200190929190803590602001906401000000008111156100ae57600080fd5b8201836020820111156100c057600080fd5b803590602001918460018302840111640100000000831117156100e257600080fd5b91908080601f016020809104026020016040519081016040528093929190818152602001838380828437600081840152601f19601f82011690508083019250505050505050919291929050505061025d565b604051808215151515815260200191505060405180910390f35b61017a6004803603602081101561016457600080fd5b81019080803590602001909291905050506102b1565b604051808215151515815260200191505060405180910390f35b610201600480360360a08110156101aa57600080fd5b81019080803573ffffffffffffffffffffffffffffffffffffffff16906020019092919080359060200190929190803560ff16906020019092919080359060200190929190803590602001909291905050506102cf565b604051808215151515815260200191505060405180910390f35b6102476004803603602081101561023157600080fd5b8101908080359060200190929190505050610329565b6040518082815260200191505060405180910390f35b600061027a8261026c85610341565b61039990919063ffffffff16565b73ffffffffffffffffffffffffffffffffffffffff168473ffffffffffffffffffffffffffffffffffffffff161490509392505050565b60008060008084815260200190815260200160002054119050919050565b60006102f08484846102e089610341565b61049d909392919063ffffffff16565b73ffffffffffffffffffffffffffffffffffffffff168673ffffffffffffffffffffffffffffffffffffffff1614905095945050505050565b60006020528060005260406000206000915090505481565b60008160405160200180807f19457468657265756d205369676e6564204d6573736167653a0a333200000000815250601c01828152602001915050604051602081830303815290604052805190602001209050919050565b600060418251146103ad5760009050610497565b60008060006020850151925060408501519150606085015160001a90507f7fffffffffffffffffffffffffffffff5d576e7357a4501ddfe92f46681b20a08260001c11156104015760009350505050610497565b601b8160ff16141580156104195750601c8160ff1614155b1561042a5760009350505050610497565b60018682858560405160008152602001604052604051808581526020018460ff1660ff1681526020018381526020018281526020019450505050506020604051602081039080840390855afa158015610487573d6000803e3d6000fd5b5050506020604051035193505050505b92915050565b600060018585858560405160008152602001604052604051808581526020018460ff1660ff1681526020018381526020018281526020019450505050506020604051602081039080840390855afa1580156104fc573d6000803e3d6000fd5b50505060206040510351905094935050505056fea265627a7a72305820bb0b553b410ca9d8e3da24b449f7f830d1b6bcaa72f57b818d5508908c6d425264736f6c634300050a0032",
  "source": "pragma solidity ^0.5.10;\n\nimport \"../libraries/ECDSA.sol\";\n\ncontract Validator{\n  using ECDSA for bytes32;\n\n    mapping (bytes32 => uint) public messageIdToBlockNumber;\n\n    modifier onlyUnseenMessage(bytes32 messageId){\n      assert(seenMessage(messageId) == false);\n      _;\n    }\n\n    modifier onlyValidSignature(address signer, bytes32 hash, uint8 v, bytes32 r, bytes32 s){\n      assert(isValidSignature(signer, hash, v,r,s));\n      _;\n    }\n\n    function seenMessage(bytes32 messageId) public view returns (bool _seen) {\n      return messageIdToBlockNumber[messageId] > 0;\n    }\n\n    function setSeenMessage(bytes32 messageId) internal{\n      messageIdToBlockNumber[messageId] = block.number;\n    }\n\n\n    function isValidSignature(address signer, bytes32 hash, uint8 v, bytes32 r, bytes32 s) public pure returns (bool _valid)\n    {\n        return signer == hash.toEthSignedMessageHash().recover(v, r, s);\n    }\n\n    function isValidSignature(address signer, bytes32 hash, bytes memory signature) public pure returns (bool _valid)\n    {\n        return signer == hash.toEthSignedMessageHash().recover(signature);\n    }\n}",
  "sourcePath": "/usr/src/app/contracts/utils/Validator.sol",
  "compiler": {
    "name": "solc",
    "version": "0.5.10+commit.5a6ea5b1.Emscripten.clang"
  },
  "schemaVersion": "3.0.11",
  "updatedAt": "2019-07-18T15:10:46.095Z",
  "devdoc": {
    "methods": {}
  },
  "userdoc": {
    "methods": {}
  }
}