{
  "contractName": "ValidationChecker",
  "abi": [
    {
      "constant": true,
      "inputs": [
        {
          "name": "signer",
          "type": "address"
        },
        {
          "name": "hash",
          "type": "bytes32"
        },
        {
          "name": "v",
          "type": "uint8"
        },
        {
          "name": "r",
          "type": "bytes32"
        },
        {
          "name": "s",
          "type": "bytes32"
        }
      ],
      "name": "isValidSignature",
      "outputs": [
        {
          "name": "_valid",
          "type": "bool"
        }
      ],
      "payable": false,
      "stateMutability": "pure",
      "type": "function"
    }
  ],
  "bytecode": "0x608060405234801561001057600080fd5b50610211806100206000396000f3fe608060405234801561001057600080fd5b506004361061002b5760003560e01c80638163681e14610030575b600080fd5b61009d600480360360a081101561004657600080fd5b81019080803573ffffffffffffffffffffffffffffffffffffffff16906020019092919080359060200190929190803560ff16906020019092919080359060200190929190803590602001909291905050506100b7565b604051808215151515815260200191505060405180910390f35b60006100d88484846100c889610111565b610169909392919063ffffffff16565b73ffffffffffffffffffffffffffffffffffffffff168673ffffffffffffffffffffffffffffffffffffffff1614905095945050505050565b60008160405160200180807f19457468657265756d205369676e6564204d6573736167653a0a333200000000815250601c01828152602001915050604051602081830303815290604052805190602001209050919050565b600060018585858560405160008152602001604052604051808581526020018460ff1660ff1681526020018381526020018281526020019450505050506020604051602081039080840390855afa1580156101c8573d6000803e3d6000fd5b50505060206040510351905094935050505056fea265627a7a72305820c9cf4997f29d5e35d452aa26321c60316815507ad7111aea346a796af16e4f7664736f6c634300050a0032",
  "source": "pragma solidity ^0.5.10;\nimport \"./libraries/ECDSA.sol\";\n\ncontract ValidationChecker{\n  using ECDSA for bytes32;\n    function isValidSignature(address signer, bytes32 hash, uint8 v, bytes32 r, bytes32 s) public pure returns (bool _valid)\n    {\n        return signer == hash.toEthSignedMessageHash().recover(v, r, s);\n    }\n}",
  "sourcePath": "/usr/src/app/contracts/ValidationChecker.sol",
  "compiler": {
    "name": "solc",
    "version": "0.5.10+commit.5a6ea5b1.Emscripten.clang"
  },
  "schemaVersion": "3.0.11",
  "updatedAt": "2019-07-10T16:56:14.473Z",
  "devdoc": {
    "methods": {}
  },
  "userdoc": {
    "methods": {}
  }
}