{
  "contractName": "Validator",
  "abi": [
    {
      "constant": true,
      "inputs": [],
      "name": "owner",
      "outputs": [
        {
          "name": "",
          "type": "address"
        }
      ],
      "payable": false,
      "stateMutability": "view",
      "type": "function"
    },
    {
      "constant": true,
      "inputs": [
        {
          "name": "",
          "type": "bytes32"
        }
      ],
      "name": "messageIdToBlockNumber",
      "outputs": [
        {
          "name": "",
          "type": "uint256"
        }
      ],
      "payable": false,
      "stateMutability": "view",
      "type": "function"
    },
    {
      "constant": true,
      "inputs": [
        {
          "name": "messageId",
          "type": "bytes32"
        }
      ],
      "name": "seenMessage",
      "outputs": [
        {
          "name": "",
          "type": "bool"
        }
      ],
      "payable": false,
      "stateMutability": "view",
      "type": "function"
    },
    {
      "constant": true,
      "inputs": [
        {
          "name": "signer",
          "type": "address"
        },
        {
          "name": "hash",
          "type": "bytes32"
        },
        {
          "name": "v",
          "type": "uint8"
        },
        {
          "name": "r",
          "type": "bytes32"
        },
        {
          "name": "s",
          "type": "bytes32"
        }
      ],
      "name": "isValidSignature",
      "outputs": [
        {
          "name": "",
          "type": "bool"
        }
      ],
      "payable": false,
      "stateMutability": "pure",
      "type": "function"
    },
    {
      "constant": true,
      "inputs": [
        {
          "name": "hash",
          "type": "bytes32"
        },
        {
          "name": "v",
          "type": "uint8"
        },
        {
          "name": "r",
          "type": "bytes32"
        },
        {
          "name": "s",
          "type": "bytes32"
        }
      ],
      "name": "recoverEthSignedMessage",
      "outputs": [
        {
          "name": "",
          "type": "address"
        }
      ],
      "payable": false,
      "stateMutability": "pure",
      "type": "function"
    }
  ],
  "bytecode": "0x608060405234801561001057600080fd5b506103dd806100206000396000f3fe608060405234801561001057600080fd5b50600436106100575760003560e01c806348a532501461005c57806358da3a8d146100eb5780638163681e146101315780638da5cb5b146101b8578063ba29ba4014610202575b600080fd5b6100a96004803603608081101561007257600080fd5b8101908080359060200190929190803560ff1690602001909291908035906020019092919080359060200190929190505050610244565b604051808273ffffffffffffffffffffffffffffffffffffffff1673ffffffffffffffffffffffffffffffffffffffff16815260200191505060405180910390f35b6101176004803603602081101561010157600080fd5b8101908080359060200190929190505050610305565b604051808215151515815260200191505060405180910390f35b61019e600480360360a081101561014757600080fd5b81019080803573ffffffffffffffffffffffffffffffffffffffff16906020019092919080359060200190929190803560ff1690602001909291908035906020019092919080359060200190929190505050610324565b604051808215151515815260200191505060405180910390f35b6101c061036b565b604051808273ffffffffffffffffffffffffffffffffffffffff1673ffffffffffffffffffffffffffffffffffffffff16815260200191505060405180910390f35b61022e6004803603602081101561021857600080fd5b8101908080359060200190929190505050610390565b6040518082815260200191505060405180910390f35b600060018560405160200180807f19457468657265756d205369676e6564204d6573736167653a0a333200000000815250601c018281526020019150506040516020818303038152906040528051906020012085858560405160008152602001604052604051808581526020018460ff1660ff1681526020018381526020018281526020019450505050506020604051602081039080840390855afa1580156102f1573d6000803e3d6000fd5b505050602060405103519050949350505050565b6000806001600084815260200190815260200160002054119050919050565b600061033285858585610244565b73ffffffffffffffffffffffffffffffffffffffff168673ffffffffffffffffffffffffffffffffffffffff1614905095945050505050565b6000809054906101000a900473ffffffffffffffffffffffffffffffffffffffff1681565b6001602052806000526040600020600091509050548156fea265627a7a7230582045080bbea246ff0b789dd14fc02c70f12058fd57ca4c9b791a9c6d0742bc9c2d64736f6c634300050a0032",
  "source": "pragma solidity ^0.5.10;\n\nimport '../classes/Ownable.sol';\n\ncontract Validator is Ownable {\n\n    mapping (bytes32 => uint) public messageIdToBlockNumber;\n\n    modifier onlyUnseenMessage(bytes32 messageId){\n      require(seenMessage(messageId) == false, '2100: this message has aleady been process');\n      _;\n      setSeenMessage(messageId);\n    }\n\n    modifier onlyValidSignature(address signer, bytes32 hash, uint8 v, bytes32 r, bytes32 s){\n      require(isValidSignature(signer, hash, v,r,s), '2100: invalid signature');\n      _;\n    }\n\n    function seenMessage(bytes32 messageId) public view returns (bool) {\n      return messageIdToBlockNumber[messageId] > 0;\n    }\n\n    function setSeenMessage(bytes32 messageId) internal{\n      messageIdToBlockNumber[messageId] = block.number;\n    }\n\n\n    function isValidSignature(address signer, bytes32 hash, uint8 v, bytes32 r, bytes32 s) public pure returns (bool)\n    {\n        return signer == recoverEthSignedMessage(hash, v,r,s);\n    }\n\n    function recoverEthSignedMessage(bytes32 hash, uint8 v, bytes32 r, bytes32 s) public pure returns(address){\n      return ecrecover(keccak256(abi.encodePacked(\"\\x19Ethereum Signed Message:\\n32\", hash)), v, r, s);\n    }\n}",
  "sourcePath": "/usr/src/app/contracts/utils/Validator.sol",
  "compiler": {
    "name": "solc",
    "version": "0.5.10+commit.5a6ea5b1.Emscripten.clang"
  },
  "schemaVersion": "3.0.11",
  "updatedAt": "2019-08-08T15:42:36.580Z",
  "devdoc": {
    "methods": {}
  },
  "userdoc": {
    "methods": {}
  }
}